{
  "_format": "hh-sol-artifact-1",
  "contractName": "NilaStakingUpgradeable",
  "sourceName": "contracts/NilaStakingUpgradeable.sol",
  "abi": [
    {
      "inputs": [],
      "stateMutability": "nonpayable",
      "type": "constructor"
    },
    {
      "inputs": [
        {
          "internalType": "address",
          "name": "target",
          "type": "address"
        }
      ],
      "name": "AddressEmptyCode",
      "type": "error"
    },
    {
      "inputs": [
        {
          "internalType": "address",
          "name": "implementation",
          "type": "address"
        }
      ],
      "name": "ERC1967InvalidImplementation",
      "type": "error"
    },
    {
      "inputs": [],
      "name": "ERC1967NonPayable",
      "type": "error"
    },
    {
      "inputs": [],
      "name": "EnforcedPause",
      "type": "error"
    },
    {
      "inputs": [],
      "name": "ExpectedPause",
      "type": "error"
    },
    {
      "inputs": [],
      "name": "FailedCall",
      "type": "error"
    },
    {
      "inputs": [],
      "name": "InvalidInitialization",
      "type": "error"
    },
    {
      "inputs": [],
      "name": "NotInitializing",
      "type": "error"
    },
    {
      "inputs": [
        {
          "internalType": "address",
          "name": "owner",
          "type": "address"
        }
      ],
      "name": "OwnableInvalidOwner",
      "type": "error"
    },
    {
      "inputs": [
        {
          "internalType": "address",
          "name": "account",
          "type": "address"
        }
      ],
      "name": "OwnableUnauthorizedAccount",
      "type": "error"
    },
    {
      "inputs": [],
      "name": "ReentrancyGuardReentrantCall",
      "type": "error"
    },
    {
      "inputs": [],
      "name": "UUPSUnauthorizedCallContext",
      "type": "error"
    },
    {
      "inputs": [
        {
          "internalType": "bytes32",
          "name": "slot",
          "type": "bytes32"
        }
      ],
      "name": "UUPSUnsupportedProxiableUUID",
      "type": "error"
    },
    {
      "anonymous": false,
      "inputs": [
        {
          "indexed": true,
          "internalType": "uint256",
          "name": "id",
          "type": "uint256"
        },
        {
          "indexed": false,
          "internalType": "uint256",
          "name": "amount",
          "type": "uint256"
        },
        {
          "indexed": false,
          "internalType": "uint256",
          "name": "instantRewardBps",
          "type": "uint256"
        }
      ],
      "name": "AmountConfigAdded",
      "type": "event"
    },
    {
      "anonymous": false,
      "inputs": [
        {
          "indexed": true,
          "internalType": "uint256",
          "name": "id",
          "type": "uint256"
        },
        {
          "indexed": false,
          "internalType": "uint256",
          "name": "instantRewardBps",
          "type": "uint256"
        },
        {
          "indexed": false,
          "internalType": "bool",
          "name": "active",
          "type": "bool"
        }
      ],
      "name": "AmountConfigUpdated",
      "type": "event"
    },
    {
      "anonymous": false,
      "inputs": [
        {
          "indexed": true,
          "internalType": "address",
          "name": "newImplementation",
          "type": "address"
        }
      ],
      "name": "ContractUpgraded",
      "type": "event"
    },
    {
      "anonymous": false,
      "inputs": [
        {
          "indexed": true,
          "internalType": "address",
          "name": "token",
          "type": "address"
        },
        {
          "indexed": false,
          "internalType": "uint256",
          "name": "amount",
          "type": "uint256"
        }
      ],
      "name": "ERC20Recovered",
      "type": "event"
    },
    {
      "anonymous": false,
      "inputs": [
        {
          "indexed": true,
          "internalType": "address",
          "name": "user",
          "type": "address"
        },
        {
          "indexed": true,
          "internalType": "uint256",
          "name": "stakeId",
          "type": "uint256"
        },
        {
          "indexed": false,
          "internalType": "uint256",
          "name": "amount",
          "type": "uint256"
        }
      ],
      "name": "EmergencyUnstaked",
      "type": "event"
    },
    {
      "anonymous": false,
      "inputs": [
        {
          "indexed": true,
          "internalType": "address",
          "name": "owner",
          "type": "address"
        },
        {
          "indexed": false,
          "internalType": "uint256",
          "name": "amount",
          "type": "uint256"
        }
      ],
      "name": "ExcessRewardsWithdrawn",
      "type": "event"
    },
    {
      "anonymous": false,
      "inputs": [
        {
          "indexed": false,
          "internalType": "uint64",
          "name": "version",
          "type": "uint64"
        }
      ],
      "name": "Initialized",
      "type": "event"
    },
    {
      "anonymous": false,
      "inputs": [
        {
          "indexed": true,
          "internalType": "address",
          "name": "user",
          "type": "address"
        },
        {
          "indexed": true,
          "internalType": "uint256",
          "name": "stakeId",
          "type": "uint256"
        },
        {
          "indexed": false,
          "internalType": "uint256",
          "name": "amount",
          "type": "uint256"
        }
      ],
      "name": "InstantRewardClaimed",
      "type": "event"
    },
    {
      "anonymous": false,
      "inputs": [
        {
          "indexed": true,
          "internalType": "uint256",
          "name": "id",
          "type": "uint256"
        },
        {
          "indexed": false,
          "internalType": "uint256",
          "name": "lockDuration",
          "type": "uint256"
        },
        {
          "indexed": false,
          "internalType": "uint256",
          "name": "apr",
          "type": "uint256"
        }
      ],
      "name": "LockConfigAdded",
      "type": "event"
    },
    {
      "anonymous": false,
      "inputs": [
        {
          "indexed": true,
          "internalType": "uint256",
          "name": "id",
          "type": "uint256"
        },
        {
          "indexed": false,
          "internalType": "uint256",
          "name": "apr",
          "type": "uint256"
        },
        {
          "indexed": false,
          "internalType": "bool",
          "name": "active",
          "type": "bool"
        }
      ],
      "name": "LockConfigUpdated",
      "type": "event"
    },
    {
      "anonymous": false,
      "inputs": [
        {
          "indexed": true,
          "internalType": "address",
          "name": "previousOwner",
          "type": "address"
        },
        {
          "indexed": true,
          "internalType": "address",
          "name": "newOwner",
          "type": "address"
        }
      ],
      "name": "OwnershipTransferred",
      "type": "event"
    },
    {
      "anonymous": false,
      "inputs": [
        {
          "indexed": false,
          "internalType": "address",
          "name": "account",
          "type": "address"
        }
      ],
      "name": "Paused",
      "type": "event"
    },
    {
      "anonymous": false,
      "inputs": [
        {
          "indexed": true,
          "internalType": "address",
          "name": "user",
          "type": "address"
        },
        {
          "indexed": false,
          "internalType": "uint256",
          "name": "amount",
          "type": "uint256"
        }
      ],
      "name": "ReferralBonusClaimed",
      "type": "event"
    },
    {
      "anonymous": false,
      "inputs": [
        {
          "indexed": false,
          "internalType": "uint256",
          "name": "referralPercentageBps",
          "type": "uint256"
        },
        {
          "indexed": false,
          "internalType": "uint256",
          "name": "referrerPercentageBps",
          "type": "uint256"
        },
        {
          "indexed": false,
          "internalType": "bool",
          "name": "isPaused",
          "type": "bool"
        }
      ],
      "name": "ReferralConfigUpdated",
      "type": "event"
    },
    {
      "anonymous": false,
      "inputs": [
        {
          "indexed": true,
          "internalType": "address",
          "name": "referrer",
          "type": "address"
        },
        {
          "indexed": true,
          "internalType": "address",
          "name": "referred",
          "type": "address"
        }
      ],
      "name": "ReferralRegistered",
      "type": "event"
    },
    {
      "anonymous": false,
      "inputs": [
        {
          "indexed": true,
          "internalType": "address",
          "name": "referrer",
          "type": "address"
        },
        {
          "indexed": true,
          "internalType": "address",
          "name": "referred",
          "type": "address"
        },
        {
          "indexed": false,
          "internalType": "uint256",
          "name": "amount",
          "type": "uint256"
        }
      ],
      "name": "ReferralRewardPaid",
      "type": "event"
    },
    {
      "anonymous": false,
      "inputs": [
        {
          "indexed": true,
          "internalType": "address",
          "name": "user",
          "type": "address"
        },
        {
          "indexed": true,
          "internalType": "uint256",
          "name": "stakeId",
          "type": "uint256"
        },
        {
          "indexed": false,
          "internalType": "uint256",
          "name": "reward",
          "type": "uint256"
        }
      ],
      "name": "RewardClaimed",
      "type": "event"
    },
    {
      "anonymous": false,
      "inputs": [
        {
          "indexed": true,
          "internalType": "uint256",
          "name": "id",
          "type": "uint256"
        },
        {
          "indexed": false,
          "internalType": "uint256",
          "name": "minAmount",
          "type": "uint256"
        },
        {
          "indexed": false,
          "internalType": "uint256",
          "name": "maxAmount",
          "type": "uint256"
        },
        {
          "indexed": false,
          "internalType": "uint256",
          "name": "instantRewardBps",
          "type": "uint256"
        }
      ],
      "name": "RewardTierAdded",
      "type": "event"
    },
    {
      "anonymous": false,
      "inputs": [
        {
          "indexed": true,
          "internalType": "uint256",
          "name": "id",
          "type": "uint256"
        },
        {
          "indexed": false,
          "internalType": "uint256",
          "name": "minAmount",
          "type": "uint256"
        },
        {
          "indexed": false,
          "internalType": "uint256",
          "name": "maxAmount",
          "type": "uint256"
        },
        {
          "indexed": false,
          "internalType": "uint256",
          "name": "instantRewardBps",
          "type": "uint256"
        },
        {
          "indexed": false,
          "internalType": "bool",
          "name": "active",
          "type": "bool"
        }
      ],
      "name": "RewardTierUpdated",
      "type": "event"
    },
    {
      "anonymous": false,
      "inputs": [
        {
          "indexed": true,
          "internalType": "address",
          "name": "user",
          "type": "address"
        },
        {
          "indexed": true,
          "internalType": "uint256",
          "name": "stakeId",
          "type": "uint256"
        },
        {
          "indexed": false,
          "internalType": "uint256",
          "name": "amount",
          "type": "uint256"
        },
        {
          "indexed": false,
          "internalType": "uint256",
          "name": "lockId",
          "type": "uint256"
        }
      ],
      "name": "Staked",
      "type": "event"
    },
    {
      "anonymous": false,
      "inputs": [
        {
          "indexed": true,
          "internalType": "address",
          "name": "user",
          "type": "address"
        },
        {
          "indexed": true,
          "internalType": "uint256",
          "name": "stakeId",
          "type": "uint256"
        },
        {
          "indexed": false,
          "internalType": "uint256",
          "name": "nilaAmount",
          "type": "uint256"
        },
        {
          "indexed": false,
          "internalType": "uint256",
          "name": "instantReward",
          "type": "uint256"
        }
      ],
      "name": "TokenPurchaseStaked",
      "type": "event"
    },
    {
      "anonymous": false,
      "inputs": [
        {
          "indexed": false,
          "internalType": "address",
          "name": "account",
          "type": "address"
        }
      ],
      "name": "Unpaused",
      "type": "event"
    },
    {
      "anonymous": false,
      "inputs": [
        {
          "indexed": true,
          "internalType": "address",
          "name": "user",
          "type": "address"
        },
        {
          "indexed": true,
          "internalType": "uint256",
          "name": "stakeId",
          "type": "uint256"
        },
        {
          "indexed": false,
          "internalType": "uint256",
          "name": "amount",
          "type": "uint256"
        }
      ],
      "name": "Unstaked",
      "type": "event"
    },
    {
      "anonymous": false,
      "inputs": [
        {
          "indexed": true,
          "internalType": "address",
          "name": "implementation",
          "type": "address"
        }
      ],
      "name": "Upgraded",
      "type": "event"
    },
    {
      "inputs": [],
      "name": "BPS",
      "outputs": [
        {
          "internalType": "uint256",
          "name": "",
          "type": "uint256"
        }
      ],
      "stateMutability": "view",
      "type": "function"
    },
    {
      "inputs": [],
      "name": "CLAIM_INTERVAL",
      "outputs": [
        {
          "internalType": "uint256",
          "name": "",
          "type": "uint256"
        }
      ],
      "stateMutability": "view",
      "type": "function"
    },
    {
      "inputs": [],
      "name": "MAX_STAKES_PER_USER",
      "outputs": [
        {
          "internalType": "uint256",
          "name": "",
          "type": "uint256"
        }
      ],
      "stateMutability": "view",
      "type": "function"
    },
    {
      "inputs": [],
      "name": "MIN_STAKE_AMOUNT",
      "outputs": [
        {
          "internalType": "uint256",
          "name": "",
          "type": "uint256"
        }
      ],
      "stateMutability": "view",
      "type": "function"
    },
    {
      "inputs": [],
      "name": "UPGRADE_INTERFACE_VERSION",
      "outputs": [
        {
          "internalType": "string",
          "name": "",
          "type": "string"
        }
      ],
      "stateMutability": "view",
      "type": "function"
    },
    {
      "inputs": [
        {
          "internalType": "address",
          "name": "",
          "type": "address"
        }
      ],
      "name": "activeStakeCount",
      "outputs": [
        {
          "internalType": "uint256",
          "name": "",
          "type": "uint256"
        }
      ],
      "stateMutability": "view",
      "type": "function"
    },
    {
      "inputs": [
        {
          "internalType": "uint256",
          "name": "amount",
          "type": "uint256"
        },
        {
          "internalType": "uint256",
          "name": "instantRewardBps",
          "type": "uint256"
        }
      ],
      "name": "addAmountConfig",
      "outputs": [],
      "stateMutability": "nonpayable",
      "type": "function"
    },
    {
      "inputs": [
        {
          "internalType": "uint256",
          "name": "lockDays",
          "type": "uint256"
        },
        {
          "internalType": "uint256",
          "name": "apr",
          "type": "uint256"
        }
      ],
      "name": "addLockConfig",
      "outputs": [],
      "stateMutability": "nonpayable",
      "type": "function"
    },
    {
      "inputs": [
        {
          "internalType": "uint256",
          "name": "minNilaAmount",
          "type": "uint256"
        },
        {
          "internalType": "uint256",
          "name": "maxNilaAmount",
          "type": "uint256"
        },
        {
          "internalType": "uint256",
          "name": "instantRewardBps",
          "type": "uint256"
        }
      ],
      "name": "addRewardTier",
      "outputs": [],
      "stateMutability": "nonpayable",
      "type": "function"
    },
    {
      "inputs": [
        {
          "internalType": "address",
          "name": "user",
          "type": "address"
        },
        {
          "internalType": "uint256",
          "name": "amount",
          "type": "uint256"
        },
        {
          "internalType": "uint256",
          "name": "lockDays",
          "type": "uint256"
        },
        {
          "internalType": "uint256",
          "name": "apr",
          "type": "uint256"
        }
      ],
      "name": "adminCreateStake",
      "outputs": [],
      "stateMutability": "nonpayable",
      "type": "function"
    },
    {
      "inputs": [
        {
          "internalType": "uint256",
          "name": "",
          "type": "uint256"
        }
      ],
      "name": "amountConfigs",
      "outputs": [
        {
          "internalType": "uint256",
          "name": "amount",
          "type": "uint256"
        },
        {
          "internalType": "uint256",
          "name": "instantRewardBps",
          "type": "uint256"
        },
        {
          "internalType": "bool",
          "name": "active",
          "type": "bool"
        }
      ],
      "stateMutability": "view",
      "type": "function"
    },
    {
      "inputs": [],
      "name": "availableRewards",
      "outputs": [
        {
          "internalType": "uint256",
          "name": "",
          "type": "uint256"
        }
      ],
      "stateMutability": "view",
      "type": "function"
    },
    {
      "inputs": [
        {
          "internalType": "address",
          "name": "user",
          "type": "address"
        },
        {
          "internalType": "uint256",
          "name": "nilaAmount",
          "type": "uint256"
        },
        {
          "internalType": "uint256",
          "name": "lockDays",
          "type": "uint256"
        },
        {
          "internalType": "uint256",
          "name": "apr",
          "type": "uint256"
        },
        {
          "internalType": "address",
          "name": "referrer",
          "type": "address"
        }
      ],
      "name": "buyWithToken",
      "outputs": [],
      "stateMutability": "nonpayable",
      "type": "function"
    },
    {
      "inputs": [
        {
          "internalType": "uint256",
          "name": "nilaAmount",
          "type": "uint256"
        }
      ],
      "name": "calculateInstantReward",
      "outputs": [
        {
          "internalType": "uint256",
          "name": "",
          "type": "uint256"
        }
      ],
      "stateMutability": "view",
      "type": "function"
    },
    {
      "inputs": [
        {
          "internalType": "uint256",
          "name": "index",
          "type": "uint256"
        }
      ],
      "name": "claim",
      "outputs": [],
      "stateMutability": "nonpayable",
      "type": "function"
    },
    {
      "inputs": [],
      "name": "claimAllAPYRewards",
      "outputs": [],
      "stateMutability": "nonpayable",
      "type": "function"
    },
    {
      "inputs": [],
      "name": "claimAllRewards",
      "outputs": [],
      "stateMutability": "nonpayable",
      "type": "function"
    },
    {
      "inputs": [],
      "name": "claimInstantRewards",
      "outputs": [],
      "stateMutability": "nonpayable",
      "type": "function"
    },
    {
      "inputs": [],
      "name": "claimReferralRewards",
      "outputs": [],
      "stateMutability": "nonpayable",
      "type": "function"
    },
    {
      "inputs": [
        {
          "internalType": "address",
          "name": "",
          "type": "address"
        }
      ],
      "name": "claimableInstantRewards",
      "outputs": [
        {
          "internalType": "uint256",
          "name": "",
          "type": "uint256"
        }
      ],
      "stateMutability": "view",
      "type": "function"
    },
    {
      "inputs": [
        {
          "internalType": "address",
          "name": "",
          "type": "address"
        }
      ],
      "name": "claimableReferralRewards",
      "outputs": [
        {
          "internalType": "uint256",
          "name": "",
          "type": "uint256"
        }
      ],
      "stateMutability": "view",
      "type": "function"
    },
    {
      "inputs": [
        {
          "internalType": "uint256",
          "name": "index",
          "type": "uint256"
        }
      ],
      "name": "emergencyUnstake",
      "outputs": [],
      "stateMutability": "nonpayable",
      "type": "function"
    },
    {
      "inputs": [],
      "name": "getAmountConfigCount",
      "outputs": [
        {
          "internalType": "uint256",
          "name": "",
          "type": "uint256"
        }
      ],
      "stateMutability": "view",
      "type": "function"
    },
    {
      "inputs": [
        {
          "internalType": "address",
          "name": "user",
          "type": "address"
        }
      ],
      "name": "getClaimableRewards",
      "outputs": [
        {
          "internalType": "uint256",
          "name": "instantRewards",
          "type": "uint256"
        },
        {
          "internalType": "uint256",
          "name": "referralRewards",
          "type": "uint256"
        },
        {
          "internalType": "uint256",
          "name": "totalClaimable",
          "type": "uint256"
        }
      ],
      "stateMutability": "view",
      "type": "function"
    },
    {
      "inputs": [],
      "name": "getLockConfigCount",
      "outputs": [
        {
          "internalType": "uint256",
          "name": "",
          "type": "uint256"
        }
      ],
      "stateMutability": "view",
      "type": "function"
    },
    {
      "inputs": [],
      "name": "getReferralConfig",
      "outputs": [
        {
          "internalType": "uint256",
          "name": "referralPercentageBps",
          "type": "uint256"
        },
        {
          "internalType": "uint256",
          "name": "referrerPercentageBps",
          "type": "uint256"
        },
        {
          "internalType": "bool",
          "name": "isPaused",
          "type": "bool"
        }
      ],
      "stateMutability": "view",
      "type": "function"
    },
    {
      "inputs": [
        {
          "internalType": "address",
          "name": "user",
          "type": "address"
        }
      ],
      "name": "getReferralStats",
      "outputs": [
        {
          "internalType": "address",
          "name": "referrer",
          "type": "address"
        },
        {
          "internalType": "uint256",
          "name": "referralsMade",
          "type": "uint256"
        },
        {
          "internalType": "uint256",
          "name": "totalEarnings",
          "type": "uint256"
        }
      ],
      "stateMutability": "view",
      "type": "function"
    },
    {
      "inputs": [
        {
          "internalType": "uint256",
          "name": "id",
          "type": "uint256"
        }
      ],
      "name": "getRewardTier",
      "outputs": [
        {
          "internalType": "uint256",
          "name": "minNilaAmount",
          "type": "uint256"
        },
        {
          "internalType": "uint256",
          "name": "maxNilaAmount",
          "type": "uint256"
        },
        {
          "internalType": "uint256",
          "name": "instantRewardBps",
          "type": "uint256"
        },
        {
          "internalType": "bool",
          "name": "active",
          "type": "bool"
        }
      ],
      "stateMutability": "view",
      "type": "function"
    },
    {
      "inputs": [],
      "name": "getRewardTierCount",
      "outputs": [
        {
          "internalType": "uint256",
          "name": "",
          "type": "uint256"
        }
      ],
      "stateMutability": "view",
      "type": "function"
    },
    {
      "inputs": [
        {
          "internalType": "address",
          "name": "user",
          "type": "address"
        },
        {
          "internalType": "uint256",
          "name": "index",
          "type": "uint256"
        }
      ],
      "name": "getStakeDetails",
      "outputs": [
        {
          "components": [
            {
              "internalType": "uint256",
              "name": "amount",
              "type": "uint256"
            },
            {
              "internalType": "uint256",
              "name": "startTime",
              "type": "uint256"
            },
            {
              "internalType": "uint256",
              "name": "lastClaimTime",
              "type": "uint256"
            },
            {
              "internalType": "uint256",
              "name": "unlockTime",
              "type": "uint256"
            },
            {
              "internalType": "uint256",
              "name": "apr",
              "type": "uint256"
            },
            {
              "internalType": "uint256",
              "name": "instantReward",
              "type": "uint256"
            },
            {
              "internalType": "bool",
              "name": "unstaked",
              "type": "bool"
            },
            {
              "internalType": "uint256",
              "name": "pendingRewards",
              "type": "uint256"
            },
            {
              "internalType": "bool",
              "name": "canClaim",
              "type": "bool"
            },
            {
              "internalType": "bool",
              "name": "canUnstake",
              "type": "bool"
            }
          ],
          "internalType": "struct NilaStakingUpgradeable.StakeDetails",
          "name": "details",
          "type": "tuple"
        }
      ],
      "stateMutability": "view",
      "type": "function"
    },
    {
      "inputs": [],
      "name": "getStakerCount",
      "outputs": [
        {
          "internalType": "uint256",
          "name": "",
          "type": "uint256"
        }
      ],
      "stateMutability": "view",
      "type": "function"
    },
    {
      "inputs": [
        {
          "internalType": "address",
          "name": "user",
          "type": "address"
        }
      ],
      "name": "getTotalPendingAPYRewards",
      "outputs": [
        {
          "internalType": "uint256",
          "name": "",
          "type": "uint256"
        }
      ],
      "stateMutability": "view",
      "type": "function"
    },
    {
      "inputs": [
        {
          "internalType": "address",
          "name": "user",
          "type": "address"
        }
      ],
      "name": "getUserActiveStakeCount",
      "outputs": [
        {
          "internalType": "uint256",
          "name": "",
          "type": "uint256"
        }
      ],
      "stateMutability": "view",
      "type": "function"
    },
    {
      "inputs": [
        {
          "internalType": "address",
          "name": "user",
          "type": "address"
        }
      ],
      "name": "getUserStakeCount",
      "outputs": [
        {
          "internalType": "uint256",
          "name": "",
          "type": "uint256"
        }
      ],
      "stateMutability": "view",
      "type": "function"
    },
    {
      "inputs": [
        {
          "internalType": "address",
          "name": "user",
          "type": "address"
        }
      ],
      "name": "getUserStakes",
      "outputs": [
        {
          "components": [
            {
              "internalType": "uint256",
              "name": "amount",
              "type": "uint256"
            },
            {
              "internalType": "uint256",
              "name": "startTime",
              "type": "uint256"
            },
            {
              "internalType": "uint256",
              "name": "lastClaimTime",
              "type": "uint256"
            },
            {
              "internalType": "uint256",
              "name": "unlockTime",
              "type": "uint256"
            },
            {
              "internalType": "uint256",
              "name": "aprSnapshot",
              "type": "uint256"
            },
            {
              "internalType": "uint256",
              "name": "instantRewardSnapshot",
              "type": "uint256"
            },
            {
              "internalType": "bool",
              "name": "unstaked",
              "type": "bool"
            }
          ],
          "internalType": "struct NilaStakingUpgradeable.StakeInfo[]",
          "name": "",
          "type": "tuple[]"
        }
      ],
      "stateMutability": "view",
      "type": "function"
    },
    {
      "inputs": [
        {
          "internalType": "address",
          "name": "user",
          "type": "address"
        }
      ],
      "name": "getUserTotals",
      "outputs": [
        {
          "internalType": "uint256",
          "name": "totalLocked",
          "type": "uint256"
        },
        {
          "internalType": "uint256",
          "name": "totalPendingRewards",
          "type": "uint256"
        },
        {
          "internalType": "uint256",
          "name": "totalInstantRewardsReceived",
          "type": "uint256"
        }
      ],
      "stateMutability": "view",
      "type": "function"
    },
    {
      "inputs": [
        {
          "internalType": "address",
          "name": "user",
          "type": "address"
        }
      ],
      "name": "hasActiveStakes",
      "outputs": [
        {
          "internalType": "bool",
          "name": "",
          "type": "bool"
        }
      ],
      "stateMutability": "view",
      "type": "function"
    },
    {
      "inputs": [
        {
          "internalType": "address",
          "name": "user",
          "type": "address"
        }
      ],
      "name": "hasReferrer",
      "outputs": [
        {
          "internalType": "bool",
          "name": "",
          "type": "bool"
        }
      ],
      "stateMutability": "view",
      "type": "function"
    },
    {
      "inputs": [
        {
          "internalType": "address",
          "name": "_nila",
          "type": "address"
        }
      ],
      "name": "initialize",
      "outputs": [],
      "stateMutability": "nonpayable",
      "type": "function"
    },
    {
      "inputs": [
        {
          "internalType": "uint256",
          "name": "",
          "type": "uint256"
        }
      ],
      "name": "lockConfigs",
      "outputs": [
        {
          "internalType": "uint256",
          "name": "lockDuration",
          "type": "uint256"
        },
        {
          "internalType": "uint256",
          "name": "apr",
          "type": "uint256"
        },
        {
          "internalType": "bool",
          "name": "active",
          "type": "bool"
        }
      ],
      "stateMutability": "view",
      "type": "function"
    },
    {
      "inputs": [],
      "name": "nila",
      "outputs": [
        {
          "internalType": "contract IERC20",
          "name": "",
          "type": "address"
        }
      ],
      "stateMutability": "view",
      "type": "function"
    },
    {
      "inputs": [],
      "name": "owner",
      "outputs": [
        {
          "internalType": "address",
          "name": "",
          "type": "address"
        }
      ],
      "stateMutability": "view",
      "type": "function"
    },
    {
      "inputs": [],
      "name": "pause",
      "outputs": [],
      "stateMutability": "nonpayable",
      "type": "function"
    },
    {
      "inputs": [],
      "name": "paused",
      "outputs": [
        {
          "internalType": "bool",
          "name": "",
          "type": "bool"
        }
      ],
      "stateMutability": "view",
      "type": "function"
    },
    {
      "inputs": [
        {
          "internalType": "address",
          "name": "user",
          "type": "address"
        },
        {
          "internalType": "uint256",
          "name": "index",
          "type": "uint256"
        }
      ],
      "name": "pendingReward",
      "outputs": [
        {
          "internalType": "uint256",
          "name": "",
          "type": "uint256"
        }
      ],
      "stateMutability": "view",
      "type": "function"
    },
    {
      "inputs": [],
      "name": "proxiableUUID",
      "outputs": [
        {
          "internalType": "bytes32",
          "name": "",
          "type": "bytes32"
        }
      ],
      "stateMutability": "view",
      "type": "function"
    },
    {
      "inputs": [
        {
          "internalType": "address",
          "name": "token",
          "type": "address"
        },
        {
          "internalType": "uint256",
          "name": "amount",
          "type": "uint256"
        }
      ],
      "name": "recoverERC20",
      "outputs": [],
      "stateMutability": "nonpayable",
      "type": "function"
    },
    {
      "inputs": [],
      "name": "referralConfig",
      "outputs": [
        {
          "internalType": "uint256",
          "name": "referralPercentageBps",
          "type": "uint256"
        },
        {
          "internalType": "uint256",
          "name": "referrerPercentageBps",
          "type": "uint256"
        },
        {
          "internalType": "bool",
          "name": "isPaused",
          "type": "bool"
        }
      ],
      "stateMutability": "view",
      "type": "function"
    },
    {
      "inputs": [
        {
          "internalType": "address",
          "name": "",
          "type": "address"
        }
      ],
      "name": "referralCount",
      "outputs": [
        {
          "internalType": "uint256",
          "name": "",
          "type": "uint256"
        }
      ],
      "stateMutability": "view",
      "type": "function"
    },
    {
      "inputs": [
        {
          "internalType": "address",
          "name": "",
          "type": "address"
        }
      ],
      "name": "referralEarnings",
      "outputs": [
        {
          "internalType": "uint256",
          "name": "",
          "type": "uint256"
        }
      ],
      "stateMutability": "view",
      "type": "function"
    },
    {
      "inputs": [
        {
          "internalType": "address",
          "name": "",
          "type": "address"
        }
      ],
      "name": "referrers",
      "outputs": [
        {
          "internalType": "address",
          "name": "",
          "type": "address"
        }
      ],
      "stateMutability": "view",
      "type": "function"
    },
    {
      "inputs": [],
      "name": "renounceOwnership",
      "outputs": [],
      "stateMutability": "nonpayable",
      "type": "function"
    },
    {
      "inputs": [
        {
          "internalType": "uint256",
          "name": "",
          "type": "uint256"
        }
      ],
      "name": "rewardTiers",
      "outputs": [
        {
          "internalType": "uint256",
          "name": "minNilaAmount",
          "type": "uint256"
        },
        {
          "internalType": "uint256",
          "name": "maxNilaAmount",
          "type": "uint256"
        },
        {
          "internalType": "uint256",
          "name": "instantRewardBps",
          "type": "uint256"
        },
        {
          "internalType": "bool",
          "name": "active",
          "type": "bool"
        }
      ],
      "stateMutability": "view",
      "type": "function"
    },
    {
      "inputs": [
        {
          "internalType": "uint256",
          "name": "referralPercentageBps",
          "type": "uint256"
        },
        {
          "internalType": "uint256",
          "name": "referrerPercentageBps",
          "type": "uint256"
        },
        {
          "internalType": "bool",
          "name": "isPaused",
          "type": "bool"
        }
      ],
      "name": "setReferralConfig",
      "outputs": [],
      "stateMutability": "nonpayable",
      "type": "function"
    },
    {
      "inputs": [
        {
          "internalType": "uint256",
          "name": "amount",
          "type": "uint256"
        },
        {
          "internalType": "uint256",
          "name": "lockId",
          "type": "uint256"
        }
      ],
      "name": "stake",
      "outputs": [],
      "stateMutability": "nonpayable",
      "type": "function"
    },
    {
      "inputs": [],
      "name": "totalStaked",
      "outputs": [
        {
          "internalType": "uint256",
          "name": "",
          "type": "uint256"
        }
      ],
      "stateMutability": "view",
      "type": "function"
    },
    {
      "inputs": [
        {
          "internalType": "address",
          "name": "newOwner",
          "type": "address"
        }
      ],
      "name": "transferOwnership",
      "outputs": [],
      "stateMutability": "nonpayable",
      "type": "function"
    },
    {
      "inputs": [],
      "name": "uniqueStakers",
      "outputs": [
        {
          "internalType": "uint256",
          "name": "",
          "type": "uint256"
        }
      ],
      "stateMutability": "view",
      "type": "function"
    },
    {
      "inputs": [],
      "name": "unpause",
      "outputs": [],
      "stateMutability": "nonpayable",
      "type": "function"
    },
    {
      "inputs": [
        {
          "internalType": "uint256",
          "name": "index",
          "type": "uint256"
        }
      ],
      "name": "unstake",
      "outputs": [],
      "stateMutability": "nonpayable",
      "type": "function"
    },
    {
      "inputs": [
        {
          "internalType": "uint256",
          "name": "id",
          "type": "uint256"
        },
        {
          "internalType": "uint256",
          "name": "instantRewardBps",
          "type": "uint256"
        },
        {
          "internalType": "bool",
          "name": "active",
          "type": "bool"
        }
      ],
      "name": "updateAmountConfig",
      "outputs": [],
      "stateMutability": "nonpayable",
      "type": "function"
    },
    {
      "inputs": [
        {
          "internalType": "uint256",
          "name": "id",
          "type": "uint256"
        },
        {
          "internalType": "uint256",
          "name": "apr",
          "type": "uint256"
        },
        {
          "internalType": "bool",
          "name": "active",
          "type": "bool"
        }
      ],
      "name": "updateLockConfig",
      "outputs": [],
      "stateMutability": "nonpayable",
      "type": "function"
    },
    {
      "inputs": [
        {
          "internalType": "uint256",
          "name": "id",
          "type": "uint256"
        },
        {
          "internalType": "uint256",
          "name": "minNilaAmount",
          "type": "uint256"
        },
        {
          "internalType": "uint256",
          "name": "maxNilaAmount",
          "type": "uint256"
        },
        {
          "internalType": "uint256",
          "name": "instantRewardBps",
          "type": "uint256"
        },
        {
          "internalType": "bool",
          "name": "active",
          "type": "bool"
        }
      ],
      "name": "updateRewardTier",
      "outputs": [],
      "stateMutability": "nonpayable",
      "type": "function"
    },
    {
      "inputs": [
        {
          "internalType": "address",
          "name": "newImplementation",
          "type": "address"
        },
        {
          "internalType": "bytes",
          "name": "data",
          "type": "bytes"
        }
      ],
      "name": "upgradeToAndCall",
      "outputs": [],
      "stateMutability": "payable",
      "type": "function"
    },
    {
      "inputs": [],
      "name": "version",
      "outputs": [
        {
          "internalType": "string",
          "name": "",
          "type": "string"
        }
      ],
      "stateMutability": "pure",
      "type": "function"
    },
    {
      "inputs": [
        {
          "internalType": "uint256",
          "name": "amount",
          "type": "uint256"
        }
      ],
      "name": "withdrawExcessRewards",
      "outputs": [],
      "stateMutability": "nonpayable",
      "type": "function"
    }
  ],
  "bytecode": "0x60a08060405234620000d157306080527ff0c57e16840df040f15088dc2f81fe391c3923bec73e23a9662efc9c229c6a009081549060ff8260401c16620000c257506001600160401b036002600160401b0319828216016200007c575b60405161404c9081620000d7823960805181818161190e0152611a050152f35b6001600160401b031990911681179091556040519081527fc7f505b2f371ae2175ee4913f4499e1f2633a7b5936321eed1cdaeb6115181d290602090a13880806200005c565b63f92ee8a960e01b8152600490fd5b600080fdfe608080604052600436101561001357600080fd5b60e060003560e01c91826251a11b1461341957508163012ce5011461328d57816305eaab4b1461314c5781630770b121146131125781630b83a72714612ee05781630f0a4fef14612cce57816311485ff014612ad15781631319649d146114255781631355e29f14612b9d578163135773cc14612b7f57816317eddd041461179057816318452cd814612b425781631b545a1714612b085781631e58a87214612ad157816321bade1314612a74578163249d39e914612a5757816327ac059b1461266557816327ed7188146126415781632e17de78146123f2578163308e401e1461238c57816336a79f00146121fa578163379607f5146120555781633ad415b514611e485781633c23f12c14611e215781633c6fa6e214611d425781633f4ba83a14611ca157816349d3a0c114611c835781634a3b68cc14611c485781634f1ef2861461198857816352d1902d146118f357816354fd4d501461189d5781635a3c52ef1461182a5781635c975abb146117e857816361e670d5146117ca5781636f8d80f514611790578163715018a6146117155781637b0472f0146114435781637c356df814611425578163817b1cd214611407578163842e2981146112e9575080638456cb5914611270578063879d9090146112555780638980f11f146111285780638c758b77146110725780638da5cb5b1461102c57806391035bae14610f9f57806399044f7c14610e6e5780639aca660e14610e505780639ae9954714610d305780639c5150f314610cd5578063a06eea3014610bc2578063a463572514610a5c578063ad3cb1cc14610a06578063ae1ee8c414610863578063bcd554f61461075e578063c07b528a14610724578063c4d66de814610512578063d6258626146104de578063db74559b146104a4578063dce2089e14610468578063eb586cae14610405578063f1da1daf146103de578063f2fde38b146103b3578063f430cf0d14610384578063f914d2a7146103685763ff201114146102f757600080fd5b34610363576020366003190112610363576004356006548110156103635761031e90613621565b50805461035f60018301549260ff60036002830154920154169060405194859485926060929594919560808501968552602085015260408401521515910152565b0390f35b600080fd5b3461036357600036600319011261036357602060405160648152f35b346103635760403660031901126103635760206103ab6103a261344f565b60243590613caf565b604051908152f35b34610363576020366003190112610363576103dc6103cf61344f565b6103d7613dd4565b613c11565b005b346103635760003660031901126103635760206001600160a01b0360005416604051908152f35b346103635760203660031901126103635761043761043160043561042c6006548210613b8f565b613621565b50613bda565b8051602080830151604080850151606095860151825195865293850192909252830152151591810191909152608090f35b34610363576020366003190112610363576001600160a01b0361048961344f565b16600052600860205260206040600020541515604051908152f35b34610363576020366003190112610363576001600160a01b036104c561344f565b16600052600d6020526020604060002054604051908152f35b3461036357602036600319011261036357602061271061050960043561050381613e8c565b90613959565b04604051908152f35b346103635760203660031901126103635761052b61344f565b7ff0c57e16840df040f15088dc2f81fe391c3923bec73e23a9662efc9c229c6a0090815460ff8160401c16159167ffffffffffffffff82168015908161071c575b6001149081610712575b159081610709575b506106df5767ffffffffffffffff19821660011784556001600160a01b0391836106c0575b5016801561067c576105b3613f0a565b6105bb613f0a565b6001600080516020613ff7833981519152556105d5613f0a565b6105dd613f0a565b6105e5613f0a565b6105ee33613c11565b6105f6613f0a565b6001600160a01b0319600054161760005560405161061381613529565b600060406101f49283815260c86020820152015260095560c8600a5560ff19600b5416600b5561063f57005b68ff00000000000000001981541690557fc7f505b2f371ae2175ee4913f4499e1f2633a7b5936321eed1cdaeb6115181d2602060405160018152a1005b606460405162461bcd60e51b815260206004820152601260248201527f496e76616c6964204e494c4120746f6b656e00000000000000000000000000006044820152fd5b68ffffffffffffffffff191668010000000000000001178455846105a3565b60046040517ff92ee8a9000000000000000000000000000000000000000000000000000000008152fd5b9050158561057e565b303b159150610576565b84915061056c565b34610363576020366003190112610363576001600160a01b0361074561344f565b16600052600e6020526020604060002054604051908152f35b346103635760a0366003190112610363576004356084356044356024356064358315158403610363577ff794b545abe701df2154d80a9668fd9b43c870e8bcd608375430ff55b39ec0ae93610855916107b5613dd4565b6107c26006548810613b8f565b6107d061271082111561374c565b8415801561085a575b6107e290613797565b836107ec88613621565b50558460016107fa89613621565b50015580600261080989613621565b50015561082e82600361081b8a613621565b50019060ff801983541691151516179055565b60405194859485926060929594919560808501968552602085015260408401521515910152565b0390a2005b508385116107d9565b346103635760803660031901126103635761087c61344f565b60243590604435906001600160a01b0360643591610898613dd4565b6108a0613d29565b16916108ad8315156137e2565b6108b884151561382d565b8015936108c58515613878565b6108d361c3508411156138c3565b83600052602092600884526108ef60646040600020541061390e565b84600052600384526040600020805460ff8116156109e7575b5050846000526007845260406000205495620151808085029485041417156109d1577fb4caaf29adda3eefee3ad552a8e85058589bf834c7466cae4ee58787f70589ed9361099e60009260409588855260078452610969878620914261373f565b918751926109768461350d565b87845242868501524289850152606084015260808301528460a08301528460c083015261397b565b858252600881528382206109b2815461396c565b90558351928352820152a36001600080516020613ff783398151915255005b634e487b7160e01b600052601160045260246000fd5b60ff191660011790556002546109fc9061396c565b6002558680610908565b346103635760003660031901126103635761035f604051610a2681613545565b600581527f352e302e3000000000000000000000000000000000000000000000000000000060208201526040519182918261359f565b3461036357600036600319011261036357610a75613d29565b336000526020600f81526040600020548015610b7e57610a9e81610a97613aac565b10156136f4565b33600052600f8252600060408120556001600160a01b03600054169180604051809463a9059cbb60e01b825281600081610af2883360048401602090939291936001600160a01b0360408201951681520152565b03925af1908115610b72576000937fc77332cd1d0405ca76ed245986ec0790a7bf92de812cc28468db6011bf1c9ea592610b45575b506040519283523392a36001600080516020613ff783398151915255005b610b6490823d8411610b6b575b610b5c8183613561565b8101906136dc565b5084610b27565b503d610b52565b6040513d6000823e3d90fd5b6064826040519062461bcd60e51b82526004820152601b60248201527f4e6f20696e7374616e74207265776172647320746f20636c61696d00000000006044820152fd5b3461036357610bd0366135e8565b91610bd9613dd4565b612710808211610c91578211610c4d57610c487f379b3b476e363861f47c32c485712ba55bc9fc35085b09c3c1163e6e6e461fce938260095583600a5560ff19600b541660ff8215151617600b5560405193849384919260409194936060840195845260208401521515910152565b0390a1005b606460405162461bcd60e51b815260206004820152601b60248201527f496e76616c69642072656665727265722070657263656e7461676500000000006044820152fd5b606460405162461bcd60e51b815260206004820152601b60248201527f496e76616c696420726566657272616c2070657263656e7461676500000000006044820152fd5b346103635760203660031901126103635760043560055481101561036357610cfc906134b6565b50805461035f60ff600260018501549401541660405193849384919260409194936060840195845260208401521515910152565b3461036357610d3e3661360b565b90610d47613dd4565b8015610e0c57610d5b61c3508311156138c3565b62015180808202918204036109d157604051610d7681613529565b818152826020820152600160408201526005549068010000000000000000821015610df657610dae826001610db494016005556134b6565b90613b5d565b6005546000198101929083116109d1577f589397f0f320a9aeb2fe413d12363e16d075210a15bb93809b47513dbc87c7319160409182519182526020820152a2005b634e487b7160e01b600052604160045260246000fd5b606460405162461bcd60e51b815260206004820152601960248201527f4c6f636b206475726174696f6e206d757374206265203e2030000000000000006044820152fd5b34610363576000366003190112610363576020600554604051908152f35b346103635760208060031936011261036357610e8861344f565b6000906000926000916001600160a01b038116600052600780835260406000209081549167ffffffffffffffff8311610df65760405194610ece818560051b0187613561565b83865260009182528082208187015b858410610f83575050505050506000925b8251841015610f695760c0610f038585613a4d565b51015115610f2f575b610f2760019160a0610f1e8787613a4d565b5101519061373f565b930192610eee565b9493610f27610f60610f4f600193610f478888613a4d565b51519061373f565b96610f5a8786613caf565b9061373f565b96915050610f0c565b604080518681526020810188905290810191909152606090f35b8483600192610f91856139f8565b815201920193019290610edd565b34610363577fb4676401e5fb7fef9e7898ca95186288807e9e40adc472a49476c1d1b75e042d610fce366135e8565b90610fda939293613dd4565b610fe76004548510613a61565b610ff561271082111561374c565b80600161100186613465565b50015561101382600261081b87613465565b6040805191825291151560208201529081908101610855565b346103635760003660031901126103635760206001600160a01b037f9016d09d72d40fdae2fd8ceac6b6234c7706214fd39c1cd1e609a0528c1993005416604051908152f35b34610363576110803661360b565b90611089613dd4565b61109481151561382d565b6110a261271083111561374c565b6040516110ae81613529565b818152826020820152600160408201526004549068010000000000000000821015610df657610dae8260016110e69401600455613465565b6004546000198101929083116109d1577f1cef1e0a7c96a56e32d0307248e42b30ebf9cf610b305cb127900448900bc26c9160409182519182526020820152a2005b346103635760403660031901126103635761114161344f565b60243561114c613dd4565b6001600160a01b03908180600054169316928314611211577f9016d09d72d40fdae2fd8ceac6b6234c7706214fd39c1cd1e609a0528c1993005460405163a9059cbb60e01b815292166001600160a01b0316600483015260248201819052602082806044810103816000875af1908115610b72577f505b28e6941631badc363841ecbf8e1214b9379c643936458e87be718e157999926020926111f4575b50604051908152a2005b61120a90833d8511610b6b57610b5c8183613561565b50846111ea565b606460405162461bcd60e51b815260206004820152601c60248201527f43616e6e6f74207265636f766572207374616b696e6720746f6b656e000000006044820152fd5b346103635760003660031901126103635760206103ab613aac565b3461036357600036600319011261036357611289613dd4565b611291613e37565b7fcd5ed15c6e187e77e9aee88184c21f4f2182ab5827cb3b7e07fbedcd63f03300600160ff198254161790557f62e78cea01bee320cd4e420270b5ea74000d11b0c9f74754ebdbfc544b05a2586020604051338152a1005b3461036357602080600319360112610363576001600160a01b0361130b61344f565b166000526007808252604060002091825467ffffffffffffffff8111610df65784849160405194611341858360051b0187613561565b8186528486018094600052856000206000915b8483106113e157505050505060405193838594850191818652518092526040850193926000905b8382106113885786860387f35b845180518752808401518785015260408082015190880152606080820151908801526080808201519088015260a0808201519088015260c09081015115159087015287965094850194938201936001919091019061137b565b83886001926113f4859c9a9b999c6139f8565b8152019201920191909794969597611354565b34610363576000366003190112610363576020600154604051908152f35b34610363576000366003190112610363576020600254604051908152f35b34610363576114513661360b565b9061145a613d29565b611462613e37565b68056bc75e2d6310000081106116d15760055482101561168d57336000526020916008835261149860646040600020541061390e565b6114a1816134b6565b5092604051936114b085613529565b8054855260ff6002600183015492848801938452015416158015604087015261164957600090826001600160a01b038354166064604051809581937f23b872dd0000000000000000000000000000000000000000000000000000000083523360048401523060248401528a60448401525af1918215610b72576115b19261162c575b5061153f8560015461373f565b60015533600052600383526040600020805460ff81161561160d575b505033600052600783526040600020611577815497514261373f565b9151604051926115868461350d565b878452428685015242604085015260608401526080830152600060a0830152600060c083015261397b565b336000526008815260406000206115c8815461396c565b90556040519283528201527fb4caaf29adda3eefee3ad552a8e85058589bf834c7466cae4ee58787f70589ed60403392a36001600080516020613ff783398151915255005b60ff191660011790556002546116229061396c565b600255868061155b565b61164290843d8611610b6b57610b5c8183613561565b5086611532565b6064826040519062461bcd60e51b82526004820152601460248201527f496e616374697665206c6f636b20636f6e6669670000000000000000000000006044820152fd5b606460405162461bcd60e51b815260206004820152600e60248201527f496e76616c6964206c6f636b49640000000000000000000000000000000000006044820152fd5b606460405162461bcd60e51b815260206004820152601460248201527f416d6f756e742062656c6f77206d696e696d756d0000000000000000000000006044820152fd5b346103635760003660031901126103635761172e613dd4565b60006001600160a01b037f9016d09d72d40fdae2fd8ceac6b6234c7706214fd39c1cd1e609a0528c1993008054906001600160a01b031982169055167f8be0079c531659141344cd1fd0a4f28419497f9722a3daafe3b4186f6b6457e08280a3005b34610363576020366003190112610363576001600160a01b036117b161344f565b1660005260086020526020604060002054604051908152f35b34610363576000366003190112610363576020600454604051908152f35b3461036357600036600319011261036357602060ff7fcd5ed15c6e187e77e9aee88184c21f4f2182ab5827cb3b7e07fbedcd63f0330054166040519015158152f35b34610363577e7c9b40d6582d140bd188d68ee83e05c102fcd89910017c50ad73047d939deb611858366135e8565b90611864939293613dd4565b6118716005548510613a61565b61187f61c3508211156138c3565b80600161188b866134b6565b50015561101382600261081b876134b6565b346103635760003660031901126103635761035f6040516118bd81613545565b600581527f332e302e3000000000000000000000000000000000000000000000000000000060208201526040519182918261359f565b34610363576000366003190112610363576001600160a01b037f000000000000000000000000000000000000000000000000000000000000000016300361195e5760206040517f360894a13ba1a3210667c828492db98dca3e2076cc3735a920a3ca505d382bbc8152f35b60046040517fe07c8dba000000000000000000000000000000000000000000000000000000008152fd5b60403660031901126103635761199c61344f565b602490813567ffffffffffffffff811161036357366023820112156103635780600401356119c981613583565b926119d76040519485613561565b81845260209182850193368783830101116103635781600092888693018737860101526001600160a01b03807f000000000000000000000000000000000000000000000000000000000000000016803014908115611c1a575b5061195e57611a3d613dd4565b811693604051857fc68d6b394bbff225c75b6ba60811fafb0da04351338aa28c9614981c55287be2600080a27f52d1902d0000000000000000000000000000000000000000000000000000000081528381600481895afa60009181611beb575b50611ab957868660405190634c9c8ce360e01b82526004820152fd5b8590877f360894a13ba1a3210667c828492db98dca3e2076cc3735a920a3ca505d382bbc91828103611bbd5750843b15611ba75750816001600160a01b0319825416179055604051907fbc7cd75a20ee27fd9adebab32041f755214dbc6bffa90cc0225b39da2e5c2d3b600080a2815115611b73575060006103dc9481925190845af4903d15611b6a573d611b4d81613583565b90611b5b6040519283613561565b8152600081943d92013e613f63565b60609250613f63565b935050505034611b7f57005b807fb398979f0000000000000000000000000000000000000000000000000000000060049252fd5b8260405190634c9c8ce360e01b82526004820152fd5b604051907faa1d49a40000000000000000000000000000000000000000000000000000000082526004820152fd5b9091508481813d8311611c13575b611c038183613561565b8101031261036357519088611a9d565b503d611bf9565b9050817f360894a13ba1a3210667c828492db98dca3e2076cc3735a920a3ca505d382bbc5416141587611a30565b346103635760203660031901126103635760206001600160a01b0380611c6c61344f565b16600052600c825260406000205416604051908152f35b3461036357600036600319011261036357602060405162278d008152f35b3461036357600036600319011261036357611cba613dd4565b7fcd5ed15c6e187e77e9aee88184c21f4f2182ab5827cb3b7e07fbedcd63f03300805460ff811615611d185760ff191690557f5db9ee0a495bf2e6ff9c91a7834c1ba4fdd244a5e8aa4e537bd38aeae4b073aa6020604051338152a1005b60046040517f8dfc202b000000000000000000000000000000000000000000000000000000008152fd5b346103635760208060031936011261036357611d5c61344f565b906001600160a01b0382166000526007916007825260406000209283549067ffffffffffffffff8211610df65760405194611d9c858460051b0187613561565b8286526000908152848120858088015b858410611e0357600082888b835b8151811015611df95760c0611dcf8284613a4d565b51015115611de0575b600101611dba565b93611df1600191610f5a8786613caf565b949050611dd8565b8385604051908152f35b6001918591611e11856139f8565b8152019201920191908690611dac565b346103635760203660031901126103635760043560045481101561036357610cfc90613465565b3461036357600036600319011261036357611e61613d29565b33600052602060078152604060002080541561201157600080805b8354831015611f3257611e8f838561365b565b509260ff6006850154161580611f17575b611eaf575b6001019250611e7c565b611eb98133613caf565b9384611ec6575b50611ea5565b611ee3611edd86600195859460024291015561373f565b9461396c565b946040519081527ff01da32686223933d8a18a391060918c7f11a3648639edd87ae013e2e2731743883392a3839291611ec0565b50600284015462278d0081018091116109d157421015611ea0565b84908015611fcd5781611f8c82611f4d600094610a97613aac565b6001600160a01b038454169060405194858094819363a9059cbb60e01b83523360048401602090939291936001600160a01b0360408201951681520152565b03925af18015610b7257611faf575b6001600080516020613ff783398151915255005b81611fc592903d10610b6b57610b5c8183613561565b508080611f9b565b6064826040519062461bcd60e51b82526004820152601760248201527f4e6f20415059207265776172647320746f20636c61696d0000000000000000006044820152fd5b6064826040519062461bcd60e51b82526004820152600f60248201527f4e6f207374616b657320666f756e6400000000000000000000000000000000006044820152fd5b34610363576020806003193601126103635760043590612073613d29565b61207d8233613d71565b3360005260078152600261209583604060002061365b565b506120a760ff60068301541615613677565b0190815462278d0081018091116109d15742106121b6576120c88333613caf565b918215612172576120db83610a97613aac565b4290556001600160a01b03600054169080604051809363a9059cbb60e01b825281600081612123893360048401602090939291936001600160a01b0360408201951681520152565b03925af1918215610b72577ff01da32686223933d8a18a391060918c7f11a3648639edd87ae013e2e273174392610b4557506040519283523392a36001600080516020613ff783398151915255005b6064826040519062461bcd60e51b82526004820152600a60248201527f4e6f2072657761726473000000000000000000000000000000000000000000006044820152fd5b6064906040519062461bcd60e51b82526004820152601360248201527f436c61696d2065766572792033302064617973000000000000000000000000006044820152fd5b34610363576020806003193601126103635760043590612218613dd4565b60ff7fcd5ed15c6e187e77e9aee88184c21f4f2182ab5827cb3b7e07fbedcd63f033005416156123485761224a613aac565b821161230457600080547f9016d09d72d40fdae2fd8ceac6b6234c7706214fd39c1cd1e609a0528c199300805460405163a9059cbb60e01b81526001600160a01b039182166004820152602481018790529493909284918691604491839187165af1938415610b72577fc156f50f65d2a2a0bf07f9b3e7c208a9b92fb5a2be793c4a456cc2fab4ea80c7946122e7575b50541692604051908152a2005b6122fd90843d8611610b6b57610b5c8183613561565b50856122da565b6064906040519062461bcd60e51b82526004820152601a60248201527f416d6f756e7420657863656564732072657761726420706f6f6c0000000000006044820152fd5b6064906040519062461bcd60e51b82526004820152601760248201527f436f6e7472616374206d757374206265207061757365640000000000000000006044820152fd5b34610363576020366003190112610363576001600160a01b036123ad61344f565b16600052600f60205260406000205460106020526040600020549061035f6123d5838361373f565b604051938493846040919493926060820195825260208201520152565b34610363576020806003193601126103635760043590612410613d29565b61241a8233613d71565b336000526007815261243082604060002061365b565b50600681019061244460ff83541615613677565b600381015442106125fd576124598433613caf565b9182612549575b60009250600160ff1982541617905561247c81546001546136c2565b600155338252600883526040822061249481546136cf565b9055826124da6001600160a01b03845416835460405195868094819363a9059cbb60e01b83523360048401602090939291936001600160a01b0360408201951681520152565b03925af1918215610b72577f7fc4727e062e336010f2c282598ef5f14facb3de68cf8195c2f23e1454b2b74e9261252c575b5054916040519283523392a36001600080516020613ff783398151915255005b61254290843d8611610b6b57610b5c8183613561565b508461250c565b61255583610a97613aac565b6001600160a01b03600054169284604051809563a9059cbb60e01b82528160008161259a873360048401602090939291936001600160a01b0360408201951681520152565b03925af1908115610b725760009487926125e0575b506040519081527ff01da32686223933d8a18a391060918c7f11a3648639edd87ae013e2e2731743863392a3612460565b6125f690873d8911610b6b57610b5c8183613561565b50876125af565b6064836040519062461bcd60e51b82526004820152600b60248201527f4c6f636b206163746976650000000000000000000000000000000000000000006044820152fd5b3461036357600036600319011261036357602060405168056bc75e2d631000008152f35b346103635760a03660031901126103635761267e61344f565b602435906044359060643590608435936001600160a01b03918286168096036103635782906126ab613dd4565b6126b3613d29565b6126bb613e37565b16936126c88515156137e2565b6126d382151561382d565b8015956126e08715613878565b6126ee61c3508611156138c3565b856000526020906008825261270a60646040600020541061390e565b6127108061272061271a87613e8c565b87613959565b049586612a2c575b8215159081612a21575b81612a13575b816129fb575b50612885575b505085600052600381526040600020805460ff811615612866575b5050856000526007815260406000205496620151808084029384041417156109d15786867fcc61f28ba8cb0945d7b1573b5fa3bca236d036d7fbd0ea7d68bbb318beece1f9604080976128197fb4caaf29adda3eefee3ad552a8e85058589bf834c7466cae4ee58787f70589ed9a600098868a52600789526127e4858b20914261373f565b918551926127f18461350d565b8c8452428b8501524287850152606084015260808301528360a08301528960c083015261397b565b8387526008865281872061282d815461396c565b905561283b8860015461373f565b60015581519088825286820152a38351928352820152a36001600080516020613ff783398151915255005b60ff1916600117905560025461287b9061396c565b600255878061275f565b87600052600c83526040600020826001600160a01b031982541617905581600052600d835260406000206128b9815461396c565b9055806128c860095487613959565b04906128d6600a5487613959565b04906128e2828261373f565b6128f46128ed613aac565b918961373f565b11612991579081899392612957575b5080612937575b507f5f1ca2fcc108b751843a763e60d2201f593516109d7dbb1b700468f2d4190bb7600080a38780612744565b826000526010845261294f604060002091825461373f565b90558961290a565b8260005260108552604060002061296f82825461373f565b905582600052600e8552612989604060002091825461373f565b90558a612903565b6084846040519062461bcd60e51b82526004820152602660248201527f496e73756666696369656e742072657761726420706f6f6c20666f722072656660448201527f657272616c7300000000000000000000000000000000000000000000000000006064820152fd5b905088600052600c845260406000205416158a61273e565b600b5460ff16159150612738565b838a14159150612732565b612a3887610a97613aac565b88600052600f84526040600020612a5088825461373f565b9055612728565b346103635760003660031901126103635760206040516127108152f35b346103635760203660031901126103635760606001600160a01b0380612a9861344f565b16600052600c60205260406000205416600d602052604060002054600e6020526040600020549060405192835260208301526040820152f35b3461036357600036600319011261036357600954600a54600b5460408051938452602084019290925260ff16151590820152606090f35b34610363576020366003190112610363576001600160a01b03612b2961344f565b1660005260076020526020604060002054604051908152f35b346103635760203660031901126103635760206001600160a01b0380612b6661344f565b16600052600c8252604060002054161515604051908152f35b34610363576000366003190112610363576020600654604051908152f35b3461036357606036600319011261036357600435604435602435612bbf613dd4565b612bcd61271083111561374c565b80158015612cc5575b612bdf90613797565b604051612beb816134f1565b83815260208101908282526040810190848252606081016001815260065468010000000000000000811015610df657806001612c2a9201600655613621565b939093612caf57612c5d9460039351855551600185015551600284015551151591019060ff801983541691151516179055565b6006546000198101939084116109d1576108557fb0962e6966d810bed3fca86ebf29182b8a8681a599007daf4ca9d7fc21af54ed93604051938493846040919493926060820195825260208201520152565b634e487b7160e01b600052600060045260246000fd5b50828111612bd6565b3461036357604036600319011261036357612ce761344f565b6040516101409182820182811067ffffffffffffffff821117610df6576040526000825260006020830152600060408301526000606083015260006080830152600060a0830152600060c0830152600060e0830152600061010083015260006101208301526001600160a01b03811660005260076020526040600020546024351015612e9c57806001600160a01b03612de992166000526007602052612d93602435604060002061365b565b50908154845260018201546020850152600282015480604086015260ff600660038501549485606089015260048101546080890152600581015460a089015201541615938492831560c088015260243590613caf565b60e086015281612e84575b50151561010084015281612e79575b50151561012082015261012060405191805183526020810151602084015260408101516040840152606081015160608401526080810151608084015260a081015160a084015260c0810151151560c084015260e081015160e0840152610100810151151561010084015201511515610120820152f35b905042101583612e03565b905062278d0081018091116109d15742101585612df4565b606460405162461bcd60e51b815260206004820152600d60248201527f496e76616c696420696e646578000000000000000000000000000000000000006044820152fd5b3461036357600036600319011261036357612ef9613d29565b336000526020600f81526040600020549060108152604060002054906000926007825260406000209060005b8254811015612fd157612f38818461365b565b5060ff6006820154161580612fb6575b612f56575b50600101612f25565b612f608233613caf565b9081612f6d575b50612f4d565b91612f838282939960019560024291015561373f565b976040519081527ff01da32686223933d8a18a391060918c7f11a3648639edd87ae013e2e2731743873392a39087612f67565b50600281015462278d0081018091116109d157421015612f48565b838286612fe789612fe2838561373f565b61373f565b9182156130ce57828492611f8c92613003600096610a97613aac565b8061308e575b5080613050575b506001600160a01b038454169060405194858094819363a9059cbb60e01b83523360048401602090939291936001600160a01b0360408201951681520152565b338552601084528460408120556040519081527f53473e2a2e0cc6840d80567f104277ea6daa0891e5316836bac38a686b79ea33843392a285613010565b8590338252600f86528160408120556040519081527fc77332cd1d0405ca76ed245986ec0790a7bf92de812cc28468db6011bf1c9ea5863392a386613009565b6064846040519062461bcd60e51b82526004820152601360248201527f4e6f207265776172647320746f20636c61696d000000000000000000000000006044820152fd5b34610363576020366003190112610363576001600160a01b0361313361344f565b16600052600f6020526020604060002054604051908152f35b3461036357600036600319011261036357613165613d29565b336000526020601081526040600020549081156132495761318882610a97613aac565b3360005260108152600060408120556001600160a01b03600054169080604051809363a9059cbb60e01b8252816000816131dc893360048401602090939291936001600160a01b0360408201951681520152565b03925af1918215610b72577f53473e2a2e0cc6840d80567f104277ea6daa0891e5316836bac38a686b79ea339261322c575b506040519283523392a26001600080516020613ff783398151915255005b61324290823d8411610b6b57610b5c8183613561565b508361320e565b6064906040519062461bcd60e51b82526004820152601c60248201527f4e6f20726566657272616c207265776172647320746f20636c61696d000000006044820152fd5b346103635760208060031936011261036357600435906132ab613d29565b60ff7fcd5ed15c6e187e77e9aee88184c21f4f2182ab5827cb3b7e07fbedcd63f033005416156133d5576132df8233613d71565b336000526007815260006132f6836040832061365b565b50600681016001815461330c60ff821615613677565b60ff191617905542600282015561332681546001546136c2565b600155338252600883526040822061333e81546136cf565b9055826133846001600160a01b03845416835460405195868094819363a9059cbb60e01b83523360048401602090939291936001600160a01b0360408201951681520152565b03925af1918215610b72577f3b1e93c4be42a439cdb9e768b998c1f8181a04e2a02607a8dbc6c64b1ed566259261252c575054916040519283523392a36001600080516020613ff783398151915255005b6064906040519062461bcd60e51b82526004820152601060248201527f4f6e6c79207768656e20706175736564000000000000000000000000000000006044820152fd5b34610363576020366003190112610363576020906001600160a01b0361343d61344f565b16600052601082526040600020548152f35b600435906001600160a01b038216820361036357565b6004548110156134a0576003906004600052027f8a35acfbc15ff81a39ae7d344fd709f28e8600b4aa8c65c6b64bfe7fe36bd19b0190600090565b634e487b7160e01b600052603260045260246000fd5b6005548110156134a0576003906005600052027f036b6384b5eca791c62761152d0c79bb0604c104a5fb6f4eb0703f3154bb3db00190600090565b6080810190811067ffffffffffffffff821117610df657604052565b60e0810190811067ffffffffffffffff821117610df657604052565b6060810190811067ffffffffffffffff821117610df657604052565b6040810190811067ffffffffffffffff821117610df657604052565b90601f8019910116810190811067ffffffffffffffff821117610df657604052565b67ffffffffffffffff8111610df657601f01601f191660200190565b6020808252825181830181905290939260005b8281106135d457505060409293506000838284010152601f8019910116010190565b8181018601518482016040015285016135b2565b606090600319011261036357600435906024359060443580151581036103635790565b6040906003190112610363576004359060243590565b6006548110156134a057600660005260021b7ff652222313e28459528d920b65115c16c04f3efc82aaedc97be59f3f377c0d3f0190600090565b80548210156134a0576000526007602060002091020190600090565b1561367e57565b606460405162461bcd60e51b815260206004820152601060248201527f416c726561647920756e7374616b6564000000000000000000000000000000006044820152fd5b919082039182116109d157565b80156109d1576000190190565b90816020910312610363575180151581036103635790565b156136fb57565b606460405162461bcd60e51b815260206004820152601860248201527f496e73756666696369656e742072657761726420706f6f6c00000000000000006044820152fd5b919082018092116109d157565b1561375357565b606460405162461bcd60e51b815260206004820152601260248201527f496e76616c6964207265776172642062707300000000000000000000000000006044820152fd5b1561379e57565b606460405162461bcd60e51b815260206004820152600d60248201527f496e76616c69642072616e6765000000000000000000000000000000000000006044820152fd5b156137e957565b606460405162461bcd60e51b815260206004820152600c60248201527f496e76616c6964207573657200000000000000000000000000000000000000006044820152fd5b1561383457565b606460405162461bcd60e51b815260206004820152600e60248201527f496e76616c696420616d6f756e740000000000000000000000000000000000006044820152fd5b1561387f57565b606460405162461bcd60e51b815260206004820152601160248201527f496e76616c6964206c6f636b20646179730000000000000000000000000000006044820152fd5b156138ca57565b606460405162461bcd60e51b815260206004820152600c60248201527f41505220746f6f206869676800000000000000000000000000000000000000006044820152fd5b1561391557565b606460405162461bcd60e51b815260206004820152601660248201527f546f6f206d616e7920616374697665207374616b6573000000000000000000006044820152fd5b818102929181159184041417156109d157565b60001981146109d15760010190565b805468010000000000000000811015610df65761399d9160018201815561365b565b612caf57600660c0836139f6945184556020810151600185015560408101516002850155606081015160038501556080810151600485015560a081015160058501550151151591019060ff801983541691151516179055565b565b90604051613a058161350d565b60c060ff600683958054855260018101546020860152600281015460408601526003810154606086015260048101546080860152600581015460a08601520154161515910152565b80518210156134a05760209160051b010190565b15613a6857565b606460405162461bcd60e51b815260206004820152601160248201527f496e76616c696420636f6e6669672069640000000000000000000000000000006044820152fd5b6000602460206001600160a01b03835416604051928380927f70a082310000000000000000000000000000000000000000000000000000000082523060048301525afa908115613b52578291613b1c575b506001549081811115613b1757613b1492506136c2565b90565b505090565b90506020813d602011613b4a575b81613b3760209383613561565b81010312613b46575138613afd565b5080fd5b3d9150613b2a565b6040513d84823e3d90fd5b90612caf5760026040836139f694518455602081015160018501550151151591019060ff801983541691151516179055565b15613b9657565b606460405162461bcd60e51b815260206004820152600f60248201527f496e76616c6964207469657220696400000000000000000000000000000000006044820152fd5b90604051613be7816134f1565b606060ff600383958054855260018101546020860152600281015460408601520154161515910152565b6001600160a01b03809116908115613c7e577f9016d09d72d40fdae2fd8ceac6b6234c7706214fd39c1cd1e609a0528c199300805490836001600160a01b03198316179055167f8be0079c531659141344cd1fd0a4f28419497f9722a3daafe3b4186f6b6457e0600080a3565b60246040517f1e4fbdf700000000000000000000000000000000000000000000000000000000815260006004820152fd5b6001600160a01b0316600052600760205260406000208054821015613d2257613ce191613cdb9161365b565b506139f8565b60c0810151613d1c57613d1881613d13613d05604064496cebb800950151426136c2565b916080815191015190613959565b613959565b0490565b50600090565b5050600090565b600080516020613ff78339815191526002815414613d475760029055565b60046040517f3ee5aeb5000000000000000000000000000000000000000000000000000000008152fd5b6001600160a01b031660005260076020526040600020541115613d9057565b606460405162461bcd60e51b815260206004820152600960248201527f42616420696e64657800000000000000000000000000000000000000000000006044820152fd5b6001600160a01b037f9016d09d72d40fdae2fd8ceac6b6234c7706214fd39c1cd1e609a0528c19930054163303613e0757565b60246040517f118cdaa7000000000000000000000000000000000000000000000000000000008152336004820152fd5b60ff7fcd5ed15c6e187e77e9aee88184c21f4f2182ab5827cb3b7e07fbedcd63f033005416613e6257565b60046040517fd93c0665000000000000000000000000000000000000000000000000000000008152fd5b6006549060005b828110613ea257505050600090565b613eae61043182613621565b606081015115613f0157805183101560208201518015908115613ef6575b5081613eee575b50613ee357506001905b01613e93565b604001519392505050565b905038613ed3565b905084111538613ecc565b50600190613edd565b60ff7ff0c57e16840df040f15088dc2f81fe391c3923bec73e23a9662efc9c229c6a005460401c1615613f3957565b60046040517fd7e6bcf8000000000000000000000000000000000000000000000000000000008152fd5b90613fa25750805115613f7857602081519101fd5b60046040517fd6bda275000000000000000000000000000000000000000000000000000000008152fd5b81511580613fed575b613fb3575090565b6024906001600160a01b03604051917f9996b315000000000000000000000000000000000000000000000000000000008352166004820152fd5b50803b15613fab56fe9b779b17422d0df92223018b32b4d1fa46e071723d6817e2486d003becc55f00a2646970667358221220eaf22647cc3a2c9185834c32bc663af8af76b8b3cfc0fbba461f433b9fbc74b164736f6c63430008160033",
  "linkReferences": {},
  "deployedLinkReferences": {}
}