{
  "_format": "hh-sol-artifact-1",
  "contractName": "NilaStakingUpgradeable",
  "sourceName": "contracts/NilaStakingUpgradeable.sol",
  "abi": [
    {
      "inputs": [],
      "stateMutability": "nonpayable",
      "type": "constructor"
    },
    {
      "inputs": [
        {
          "internalType": "address",
          "name": "target",
          "type": "address"
        }
      ],
      "name": "AddressEmptyCode",
      "type": "error"
    },
    {
      "inputs": [
        {
          "internalType": "address",
          "name": "implementation",
          "type": "address"
        }
      ],
      "name": "ERC1967InvalidImplementation",
      "type": "error"
    },
    {
      "inputs": [],
      "name": "ERC1967NonPayable",
      "type": "error"
    },
    {
      "inputs": [],
      "name": "EnforcedPause",
      "type": "error"
    },
    {
      "inputs": [],
      "name": "ExpectedPause",
      "type": "error"
    },
    {
      "inputs": [],
      "name": "FailedCall",
      "type": "error"
    },
    {
      "inputs": [],
      "name": "InvalidInitialization",
      "type": "error"
    },
    {
      "inputs": [],
      "name": "NotInitializing",
      "type": "error"
    },
    {
      "inputs": [
        {
          "internalType": "address",
          "name": "owner",
          "type": "address"
        }
      ],
      "name": "OwnableInvalidOwner",
      "type": "error"
    },
    {
      "inputs": [
        {
          "internalType": "address",
          "name": "account",
          "type": "address"
        }
      ],
      "name": "OwnableUnauthorizedAccount",
      "type": "error"
    },
    {
      "inputs": [],
      "name": "ReentrancyGuardReentrantCall",
      "type": "error"
    },
    {
      "inputs": [],
      "name": "UUPSUnauthorizedCallContext",
      "type": "error"
    },
    {
      "inputs": [
        {
          "internalType": "bytes32",
          "name": "slot",
          "type": "bytes32"
        }
      ],
      "name": "UUPSUnsupportedProxiableUUID",
      "type": "error"
    },
    {
      "anonymous": false,
      "inputs": [
        {
          "indexed": true,
          "internalType": "uint256",
          "name": "id",
          "type": "uint256"
        },
        {
          "indexed": false,
          "internalType": "uint256",
          "name": "amount",
          "type": "uint256"
        },
        {
          "indexed": false,
          "internalType": "uint256",
          "name": "instantRewardBps",
          "type": "uint256"
        }
      ],
      "name": "AmountConfigAdded",
      "type": "event"
    },
    {
      "anonymous": false,
      "inputs": [
        {
          "indexed": true,
          "internalType": "uint256",
          "name": "id",
          "type": "uint256"
        },
        {
          "indexed": false,
          "internalType": "uint256",
          "name": "instantRewardBps",
          "type": "uint256"
        },
        {
          "indexed": false,
          "internalType": "bool",
          "name": "active",
          "type": "bool"
        }
      ],
      "name": "AmountConfigUpdated",
      "type": "event"
    },
    {
      "anonymous": false,
      "inputs": [
        {
          "indexed": true,
          "internalType": "address",
          "name": "newImplementation",
          "type": "address"
        }
      ],
      "name": "ContractUpgraded",
      "type": "event"
    },
    {
      "anonymous": false,
      "inputs": [
        {
          "indexed": true,
          "internalType": "address",
          "name": "token",
          "type": "address"
        },
        {
          "indexed": false,
          "internalType": "uint256",
          "name": "amount",
          "type": "uint256"
        }
      ],
      "name": "ERC20Recovered",
      "type": "event"
    },
    {
      "anonymous": false,
      "inputs": [
        {
          "indexed": true,
          "internalType": "address",
          "name": "user",
          "type": "address"
        },
        {
          "indexed": true,
          "internalType": "uint256",
          "name": "stakeId",
          "type": "uint256"
        },
        {
          "indexed": false,
          "internalType": "uint256",
          "name": "amount",
          "type": "uint256"
        }
      ],
      "name": "EmergencyUnstaked",
      "type": "event"
    },
    {
      "anonymous": false,
      "inputs": [
        {
          "indexed": true,
          "internalType": "address",
          "name": "owner",
          "type": "address"
        },
        {
          "indexed": false,
          "internalType": "uint256",
          "name": "amount",
          "type": "uint256"
        }
      ],
      "name": "ExcessRewardsWithdrawn",
      "type": "event"
    },
    {
      "anonymous": false,
      "inputs": [
        {
          "indexed": false,
          "internalType": "uint64",
          "name": "version",
          "type": "uint64"
        }
      ],
      "name": "Initialized",
      "type": "event"
    },
    {
      "anonymous": false,
      "inputs": [
        {
          "indexed": true,
          "internalType": "address",
          "name": "user",
          "type": "address"
        },
        {
          "indexed": true,
          "internalType": "uint256",
          "name": "stakeId",
          "type": "uint256"
        },
        {
          "indexed": false,
          "internalType": "uint256",
          "name": "amount",
          "type": "uint256"
        }
      ],
      "name": "InstantRewardClaimed",
      "type": "event"
    },
    {
      "anonymous": false,
      "inputs": [
        {
          "indexed": true,
          "internalType": "uint256",
          "name": "id",
          "type": "uint256"
        },
        {
          "indexed": false,
          "internalType": "uint256",
          "name": "lockDuration",
          "type": "uint256"
        },
        {
          "indexed": false,
          "internalType": "uint256",
          "name": "apr",
          "type": "uint256"
        }
      ],
      "name": "LockConfigAdded",
      "type": "event"
    },
    {
      "anonymous": false,
      "inputs": [
        {
          "indexed": true,
          "internalType": "uint256",
          "name": "id",
          "type": "uint256"
        },
        {
          "indexed": false,
          "internalType": "uint256",
          "name": "apr",
          "type": "uint256"
        },
        {
          "indexed": false,
          "internalType": "bool",
          "name": "active",
          "type": "bool"
        }
      ],
      "name": "LockConfigUpdated",
      "type": "event"
    },
    {
      "anonymous": false,
      "inputs": [
        {
          "indexed": true,
          "internalType": "address",
          "name": "admin",
          "type": "address"
        },
        {
          "indexed": false,
          "internalType": "uint256",
          "name": "amount",
          "type": "uint256"
        }
      ],
      "name": "NILADepositedForLiabilities",
      "type": "event"
    },
    {
      "anonymous": false,
      "inputs": [
        {
          "indexed": true,
          "internalType": "address",
          "name": "previousOwner",
          "type": "address"
        },
        {
          "indexed": true,
          "internalType": "address",
          "name": "newOwner",
          "type": "address"
        }
      ],
      "name": "OwnershipTransferred",
      "type": "event"
    },
    {
      "anonymous": false,
      "inputs": [
        {
          "indexed": false,
          "internalType": "address",
          "name": "account",
          "type": "address"
        }
      ],
      "name": "Paused",
      "type": "event"
    },
    {
      "anonymous": false,
      "inputs": [
        {
          "indexed": true,
          "internalType": "address",
          "name": "user",
          "type": "address"
        },
        {
          "indexed": false,
          "internalType": "uint256",
          "name": "amount",
          "type": "uint256"
        }
      ],
      "name": "ReferralBonusClaimed",
      "type": "event"
    },
    {
      "anonymous": false,
      "inputs": [
        {
          "indexed": false,
          "internalType": "uint256",
          "name": "referralPercentageBps",
          "type": "uint256"
        },
        {
          "indexed": false,
          "internalType": "uint256",
          "name": "referrerPercentageBps",
          "type": "uint256"
        },
        {
          "indexed": false,
          "internalType": "bool",
          "name": "isPaused",
          "type": "bool"
        }
      ],
      "name": "ReferralConfigUpdated",
      "type": "event"
    },
    {
      "anonymous": false,
      "inputs": [
        {
          "indexed": true,
          "internalType": "address",
          "name": "referrer",
          "type": "address"
        },
        {
          "indexed": true,
          "internalType": "address",
          "name": "referred",
          "type": "address"
        }
      ],
      "name": "ReferralRegistered",
      "type": "event"
    },
    {
      "anonymous": false,
      "inputs": [
        {
          "indexed": true,
          "internalType": "address",
          "name": "referrer",
          "type": "address"
        },
        {
          "indexed": true,
          "internalType": "address",
          "name": "referred",
          "type": "address"
        },
        {
          "indexed": false,
          "internalType": "uint256",
          "name": "amount",
          "type": "uint256"
        }
      ],
      "name": "ReferralRewardPaid",
      "type": "event"
    },
    {
      "anonymous": false,
      "inputs": [
        {
          "indexed": true,
          "internalType": "address",
          "name": "user",
          "type": "address"
        },
        {
          "indexed": true,
          "internalType": "uint256",
          "name": "stakeId",
          "type": "uint256"
        },
        {
          "indexed": false,
          "internalType": "uint256",
          "name": "reward",
          "type": "uint256"
        }
      ],
      "name": "RewardClaimed",
      "type": "event"
    },
    {
      "anonymous": false,
      "inputs": [
        {
          "indexed": true,
          "internalType": "address",
          "name": "user",
          "type": "address"
        },
        {
          "indexed": true,
          "internalType": "uint256",
          "name": "stakeId",
          "type": "uint256"
        },
        {
          "indexed": false,
          "internalType": "uint256",
          "name": "amount",
          "type": "uint256"
        },
        {
          "indexed": false,
          "internalType": "uint256",
          "name": "lockId",
          "type": "uint256"
        }
      ],
      "name": "Staked",
      "type": "event"
    },
    {
      "anonymous": false,
      "inputs": [
        {
          "indexed": true,
          "internalType": "address",
          "name": "user",
          "type": "address"
        },
        {
          "indexed": true,
          "internalType": "uint256",
          "name": "stakeId",
          "type": "uint256"
        },
        {
          "indexed": false,
          "internalType": "uint256",
          "name": "usdtPaid",
          "type": "uint256"
        },
        {
          "indexed": false,
          "internalType": "uint256",
          "name": "nilaRecorded",
          "type": "uint256"
        }
      ],
      "name": "USDTStakeCreated",
      "type": "event"
    },
    {
      "anonymous": false,
      "inputs": [
        {
          "indexed": true,
          "internalType": "address",
          "name": "admin",
          "type": "address"
        },
        {
          "indexed": false,
          "internalType": "uint256",
          "name": "amount",
          "type": "uint256"
        }
      ],
      "name": "USDTWithdrawn",
      "type": "event"
    },
    {
      "anonymous": false,
      "inputs": [
        {
          "indexed": false,
          "internalType": "address",
          "name": "account",
          "type": "address"
        }
      ],
      "name": "Unpaused",
      "type": "event"
    },
    {
      "anonymous": false,
      "inputs": [
        {
          "indexed": true,
          "internalType": "address",
          "name": "user",
          "type": "address"
        },
        {
          "indexed": true,
          "internalType": "uint256",
          "name": "stakeId",
          "type": "uint256"
        },
        {
          "indexed": false,
          "internalType": "uint256",
          "name": "amount",
          "type": "uint256"
        }
      ],
      "name": "Unstaked",
      "type": "event"
    },
    {
      "anonymous": false,
      "inputs": [
        {
          "indexed": true,
          "internalType": "address",
          "name": "implementation",
          "type": "address"
        }
      ],
      "name": "Upgraded",
      "type": "event"
    },
    {
      "inputs": [],
      "name": "BPS",
      "outputs": [
        {
          "internalType": "uint256",
          "name": "",
          "type": "uint256"
        }
      ],
      "stateMutability": "view",
      "type": "function"
    },
    {
      "inputs": [],
      "name": "CLAIM_INTERVAL",
      "outputs": [
        {
          "internalType": "uint256",
          "name": "",
          "type": "uint256"
        }
      ],
      "stateMutability": "view",
      "type": "function"
    },
    {
      "inputs": [],
      "name": "MAX_STAKES_PER_USER",
      "outputs": [
        {
          "internalType": "uint256",
          "name": "",
          "type": "uint256"
        }
      ],
      "stateMutability": "view",
      "type": "function"
    },
    {
      "inputs": [],
      "name": "MIN_STAKE_AMOUNT",
      "outputs": [
        {
          "internalType": "uint256",
          "name": "",
          "type": "uint256"
        }
      ],
      "stateMutability": "view",
      "type": "function"
    },
    {
      "inputs": [],
      "name": "MIN_USDT_PURCHASE",
      "outputs": [
        {
          "internalType": "uint256",
          "name": "",
          "type": "uint256"
        }
      ],
      "stateMutability": "view",
      "type": "function"
    },
    {
      "inputs": [],
      "name": "NILA_PRICE_USDT",
      "outputs": [
        {
          "internalType": "uint256",
          "name": "",
          "type": "uint256"
        }
      ],
      "stateMutability": "view",
      "type": "function"
    },
    {
      "inputs": [],
      "name": "UPGRADE_INTERFACE_VERSION",
      "outputs": [
        {
          "internalType": "string",
          "name": "",
          "type": "string"
        }
      ],
      "stateMutability": "view",
      "type": "function"
    },
    {
      "inputs": [
        {
          "internalType": "address",
          "name": "",
          "type": "address"
        }
      ],
      "name": "activeStakeCount",
      "outputs": [
        {
          "internalType": "uint256",
          "name": "",
          "type": "uint256"
        }
      ],
      "stateMutability": "view",
      "type": "function"
    },
    {
      "inputs": [
        {
          "internalType": "uint256",
          "name": "amount",
          "type": "uint256"
        },
        {
          "internalType": "uint256",
          "name": "instantRewardBps",
          "type": "uint256"
        }
      ],
      "name": "addAmountConfig",
      "outputs": [],
      "stateMutability": "nonpayable",
      "type": "function"
    },
    {
      "inputs": [
        {
          "internalType": "uint256",
          "name": "lockDays",
          "type": "uint256"
        },
        {
          "internalType": "uint256",
          "name": "apr",
          "type": "uint256"
        }
      ],
      "name": "addLockConfig",
      "outputs": [],
      "stateMutability": "nonpayable",
      "type": "function"
    },
    {
      "inputs": [
        {
          "internalType": "address",
          "name": "user",
          "type": "address"
        },
        {
          "internalType": "uint256",
          "name": "amount",
          "type": "uint256"
        },
        {
          "internalType": "uint256",
          "name": "lockDays",
          "type": "uint256"
        },
        {
          "internalType": "uint256",
          "name": "apr",
          "type": "uint256"
        }
      ],
      "name": "adminCreateStake",
      "outputs": [],
      "stateMutability": "nonpayable",
      "type": "function"
    },
    {
      "inputs": [
        {
          "internalType": "uint256",
          "name": "",
          "type": "uint256"
        }
      ],
      "name": "amountConfigs",
      "outputs": [
        {
          "internalType": "uint256",
          "name": "amount",
          "type": "uint256"
        },
        {
          "internalType": "uint256",
          "name": "instantRewardBps",
          "type": "uint256"
        },
        {
          "internalType": "bool",
          "name": "active",
          "type": "bool"
        }
      ],
      "stateMutability": "view",
      "type": "function"
    },
    {
      "inputs": [],
      "name": "availableRewards",
      "outputs": [
        {
          "internalType": "uint256",
          "name": "",
          "type": "uint256"
        }
      ],
      "stateMutability": "view",
      "type": "function"
    },
    {
      "inputs": [
        {
          "internalType": "uint256",
          "name": "usdtAmount",
          "type": "uint256"
        },
        {
          "internalType": "uint256",
          "name": "lockId",
          "type": "uint256"
        }
      ],
      "name": "buyAndStakeWithUSDT",
      "outputs": [],
      "stateMutability": "nonpayable",
      "type": "function"
    },
    {
      "inputs": [
        {
          "internalType": "uint256",
          "name": "usdtAmount",
          "type": "uint256"
        },
        {
          "internalType": "uint256",
          "name": "lockId",
          "type": "uint256"
        },
        {
          "internalType": "address",
          "name": "referrer",
          "type": "address"
        }
      ],
      "name": "buyAndStakeWithUSDTAndReferral",
      "outputs": [],
      "stateMutability": "nonpayable",
      "type": "function"
    },
    {
      "inputs": [
        {
          "internalType": "uint256",
          "name": "index",
          "type": "uint256"
        }
      ],
      "name": "claim",
      "outputs": [],
      "stateMutability": "nonpayable",
      "type": "function"
    },
    {
      "inputs": [],
      "name": "claimAllAPYRewards",
      "outputs": [],
      "stateMutability": "nonpayable",
      "type": "function"
    },
    {
      "inputs": [],
      "name": "claimAllRewards",
      "outputs": [],
      "stateMutability": "nonpayable",
      "type": "function"
    },
    {
      "inputs": [],
      "name": "claimAllUSDTRewards",
      "outputs": [],
      "stateMutability": "nonpayable",
      "type": "function"
    },
    {
      "inputs": [],
      "name": "claimInstantRewards",
      "outputs": [],
      "stateMutability": "nonpayable",
      "type": "function"
    },
    {
      "inputs": [],
      "name": "claimInstantRewardsUSDT",
      "outputs": [],
      "stateMutability": "nonpayable",
      "type": "function"
    },
    {
      "inputs": [],
      "name": "claimReferralRewards",
      "outputs": [],
      "stateMutability": "nonpayable",
      "type": "function"
    },
    {
      "inputs": [],
      "name": "claimReferralRewardsUSDT",
      "outputs": [],
      "stateMutability": "nonpayable",
      "type": "function"
    },
    {
      "inputs": [
        {
          "internalType": "address",
          "name": "",
          "type": "address"
        }
      ],
      "name": "claimableInstantRewards",
      "outputs": [
        {
          "internalType": "uint256",
          "name": "",
          "type": "uint256"
        }
      ],
      "stateMutability": "view",
      "type": "function"
    },
    {
      "inputs": [
        {
          "internalType": "address",
          "name": "",
          "type": "address"
        }
      ],
      "name": "claimableInstantRewardsUSDT",
      "outputs": [
        {
          "internalType": "uint256",
          "name": "",
          "type": "uint256"
        }
      ],
      "stateMutability": "view",
      "type": "function"
    },
    {
      "inputs": [
        {
          "internalType": "address",
          "name": "",
          "type": "address"
        }
      ],
      "name": "claimableReferralRewards",
      "outputs": [
        {
          "internalType": "uint256",
          "name": "",
          "type": "uint256"
        }
      ],
      "stateMutability": "view",
      "type": "function"
    },
    {
      "inputs": [
        {
          "internalType": "address",
          "name": "",
          "type": "address"
        }
      ],
      "name": "claimableReferralRewardsUSDT",
      "outputs": [
        {
          "internalType": "uint256",
          "name": "",
          "type": "uint256"
        }
      ],
      "stateMutability": "view",
      "type": "function"
    },
    {
      "inputs": [
        {
          "internalType": "uint256",
          "name": "amount",
          "type": "uint256"
        }
      ],
      "name": "depositNILAForLiabilities",
      "outputs": [],
      "stateMutability": "nonpayable",
      "type": "function"
    },
    {
      "inputs": [
        {
          "internalType": "uint256",
          "name": "index",
          "type": "uint256"
        }
      ],
      "name": "emergencyUnstake",
      "outputs": [],
      "stateMutability": "nonpayable",
      "type": "function"
    },
    {
      "inputs": [],
      "name": "getAmountConfigCount",
      "outputs": [
        {
          "internalType": "uint256",
          "name": "",
          "type": "uint256"
        }
      ],
      "stateMutability": "view",
      "type": "function"
    },
    {
      "inputs": [
        {
          "internalType": "address",
          "name": "user",
          "type": "address"
        }
      ],
      "name": "getClaimableRewards",
      "outputs": [
        {
          "internalType": "uint256",
          "name": "instantRewards",
          "type": "uint256"
        },
        {
          "internalType": "uint256",
          "name": "referralRewards",
          "type": "uint256"
        },
        {
          "internalType": "uint256",
          "name": "totalClaimable",
          "type": "uint256"
        }
      ],
      "stateMutability": "view",
      "type": "function"
    },
    {
      "inputs": [
        {
          "internalType": "address",
          "name": "user",
          "type": "address"
        }
      ],
      "name": "getClaimableRewardsDetailed",
      "outputs": [
        {
          "internalType": "uint256",
          "name": "instantRewardsNILA",
          "type": "uint256"
        },
        {
          "internalType": "uint256",
          "name": "referralRewardsNILA",
          "type": "uint256"
        },
        {
          "internalType": "uint256",
          "name": "instantRewardsUSDT",
          "type": "uint256"
        },
        {
          "internalType": "uint256",
          "name": "referralRewardsUSDT",
          "type": "uint256"
        },
        {
          "internalType": "uint256",
          "name": "apyRewardsNILA",
          "type": "uint256"
        }
      ],
      "stateMutability": "view",
      "type": "function"
    },
    {
      "inputs": [],
      "name": "getLockConfigCount",
      "outputs": [
        {
          "internalType": "uint256",
          "name": "",
          "type": "uint256"
        }
      ],
      "stateMutability": "view",
      "type": "function"
    },
    {
      "inputs": [],
      "name": "getNILALiabilityStatus",
      "outputs": [
        {
          "internalType": "uint256",
          "name": "totalLiabilities",
          "type": "uint256"
        },
        {
          "internalType": "uint256",
          "name": "nilaBalance",
          "type": "uint256"
        },
        {
          "internalType": "uint256",
          "name": "deficitOrSurplus",
          "type": "uint256"
        },
        {
          "internalType": "bool",
          "name": "hasSurplus",
          "type": "bool"
        }
      ],
      "stateMutability": "view",
      "type": "function"
    },
    {
      "inputs": [],
      "name": "getReferralConfig",
      "outputs": [
        {
          "internalType": "uint256",
          "name": "referralPercentageBps",
          "type": "uint256"
        },
        {
          "internalType": "uint256",
          "name": "referrerPercentageBps",
          "type": "uint256"
        },
        {
          "internalType": "bool",
          "name": "isPaused",
          "type": "bool"
        }
      ],
      "stateMutability": "view",
      "type": "function"
    },
    {
      "inputs": [
        {
          "internalType": "address",
          "name": "user",
          "type": "address"
        }
      ],
      "name": "getReferralStats",
      "outputs": [
        {
          "internalType": "address",
          "name": "referrer",
          "type": "address"
        },
        {
          "internalType": "uint256",
          "name": "referralsMade",
          "type": "uint256"
        },
        {
          "internalType": "uint256",
          "name": "totalEarnings",
          "type": "uint256"
        }
      ],
      "stateMutability": "view",
      "type": "function"
    },
    {
      "inputs": [
        {
          "internalType": "address",
          "name": "user",
          "type": "address"
        },
        {
          "internalType": "uint256",
          "name": "index",
          "type": "uint256"
        }
      ],
      "name": "getStakeDetails",
      "outputs": [
        {
          "components": [
            {
              "internalType": "uint256",
              "name": "amount",
              "type": "uint256"
            },
            {
              "internalType": "uint256",
              "name": "usdtPaid",
              "type": "uint256"
            },
            {
              "internalType": "uint256",
              "name": "startTime",
              "type": "uint256"
            },
            {
              "internalType": "uint256",
              "name": "lastClaimTime",
              "type": "uint256"
            },
            {
              "internalType": "uint256",
              "name": "unlockTime",
              "type": "uint256"
            },
            {
              "internalType": "uint256",
              "name": "apr",
              "type": "uint256"
            },
            {
              "internalType": "uint256",
              "name": "instantReward",
              "type": "uint256"
            },
            {
              "internalType": "bool",
              "name": "unstaked",
              "type": "bool"
            },
            {
              "internalType": "bool",
              "name": "isUsdtStake",
              "type": "bool"
            },
            {
              "internalType": "uint256",
              "name": "pendingRewards",
              "type": "uint256"
            },
            {
              "internalType": "bool",
              "name": "canClaim",
              "type": "bool"
            },
            {
              "internalType": "bool",
              "name": "canUnstake",
              "type": "bool"
            }
          ],
          "internalType": "struct NilaStakingUpgradeable.StakeDetails",
          "name": "details",
          "type": "tuple"
        }
      ],
      "stateMutability": "view",
      "type": "function"
    },
    {
      "inputs": [],
      "name": "getStakerCount",
      "outputs": [
        {
          "internalType": "uint256",
          "name": "",
          "type": "uint256"
        }
      ],
      "stateMutability": "view",
      "type": "function"
    },
    {
      "inputs": [
        {
          "internalType": "address",
          "name": "user",
          "type": "address"
        }
      ],
      "name": "getTotalPendingAPYRewards",
      "outputs": [
        {
          "internalType": "uint256",
          "name": "",
          "type": "uint256"
        }
      ],
      "stateMutability": "view",
      "type": "function"
    },
    {
      "inputs": [],
      "name": "getUSDTBalance",
      "outputs": [
        {
          "internalType": "uint256",
          "name": "",
          "type": "uint256"
        }
      ],
      "stateMutability": "view",
      "type": "function"
    },
    {
      "inputs": [
        {
          "internalType": "address",
          "name": "user",
          "type": "address"
        }
      ],
      "name": "getUserActiveStakeCount",
      "outputs": [
        {
          "internalType": "uint256",
          "name": "",
          "type": "uint256"
        }
      ],
      "stateMutability": "view",
      "type": "function"
    },
    {
      "inputs": [
        {
          "internalType": "address",
          "name": "user",
          "type": "address"
        }
      ],
      "name": "getUserStakeCount",
      "outputs": [
        {
          "internalType": "uint256",
          "name": "",
          "type": "uint256"
        }
      ],
      "stateMutability": "view",
      "type": "function"
    },
    {
      "inputs": [
        {
          "internalType": "address",
          "name": "user",
          "type": "address"
        }
      ],
      "name": "getUserStakes",
      "outputs": [
        {
          "components": [
            {
              "internalType": "uint256",
              "name": "amount",
              "type": "uint256"
            },
            {
              "internalType": "uint256",
              "name": "usdtPaid",
              "type": "uint256"
            },
            {
              "internalType": "uint256",
              "name": "startTime",
              "type": "uint256"
            },
            {
              "internalType": "uint256",
              "name": "lastClaimTime",
              "type": "uint256"
            },
            {
              "internalType": "uint256",
              "name": "unlockTime",
              "type": "uint256"
            },
            {
              "internalType": "uint256",
              "name": "aprSnapshot",
              "type": "uint256"
            },
            {
              "internalType": "uint256",
              "name": "instantRewardSnapshot",
              "type": "uint256"
            },
            {
              "internalType": "bool",
              "name": "unstaked",
              "type": "bool"
            },
            {
              "internalType": "bool",
              "name": "isUsdtStake",
              "type": "bool"
            }
          ],
          "internalType": "struct NilaStakingUpgradeable.StakeInfo[]",
          "name": "",
          "type": "tuple[]"
        }
      ],
      "stateMutability": "view",
      "type": "function"
    },
    {
      "inputs": [
        {
          "internalType": "address",
          "name": "user",
          "type": "address"
        }
      ],
      "name": "getUserTotals",
      "outputs": [
        {
          "internalType": "uint256",
          "name": "totalLocked",
          "type": "uint256"
        },
        {
          "internalType": "uint256",
          "name": "totalPendingRewards",
          "type": "uint256"
        },
        {
          "internalType": "uint256",
          "name": "totalInstantRewardsReceived",
          "type": "uint256"
        }
      ],
      "stateMutability": "view",
      "type": "function"
    },
    {
      "inputs": [
        {
          "internalType": "address",
          "name": "user",
          "type": "address"
        }
      ],
      "name": "hasActiveStakes",
      "outputs": [
        {
          "internalType": "bool",
          "name": "",
          "type": "bool"
        }
      ],
      "stateMutability": "view",
      "type": "function"
    },
    {
      "inputs": [
        {
          "internalType": "address",
          "name": "user",
          "type": "address"
        }
      ],
      "name": "hasReferrer",
      "outputs": [
        {
          "internalType": "bool",
          "name": "",
          "type": "bool"
        }
      ],
      "stateMutability": "view",
      "type": "function"
    },
    {
      "inputs": [
        {
          "internalType": "address",
          "name": "_nila",
          "type": "address"
        },
        {
          "internalType": "address",
          "name": "_usdt",
          "type": "address"
        }
      ],
      "name": "initialize",
      "outputs": [],
      "stateMutability": "nonpayable",
      "type": "function"
    },
    {
      "inputs": [
        {
          "internalType": "uint256",
          "name": "",
          "type": "uint256"
        }
      ],
      "name": "lockConfigs",
      "outputs": [
        {
          "internalType": "uint256",
          "name": "lockDuration",
          "type": "uint256"
        },
        {
          "internalType": "uint256",
          "name": "apr",
          "type": "uint256"
        },
        {
          "internalType": "bool",
          "name": "active",
          "type": "bool"
        }
      ],
      "stateMutability": "view",
      "type": "function"
    },
    {
      "inputs": [],
      "name": "nila",
      "outputs": [
        {
          "internalType": "contract IERC20",
          "name": "",
          "type": "address"
        }
      ],
      "stateMutability": "view",
      "type": "function"
    },
    {
      "inputs": [],
      "name": "owner",
      "outputs": [
        {
          "internalType": "address",
          "name": "",
          "type": "address"
        }
      ],
      "stateMutability": "view",
      "type": "function"
    },
    {
      "inputs": [],
      "name": "pause",
      "outputs": [],
      "stateMutability": "nonpayable",
      "type": "function"
    },
    {
      "inputs": [],
      "name": "paused",
      "outputs": [
        {
          "internalType": "bool",
          "name": "",
          "type": "bool"
        }
      ],
      "stateMutability": "view",
      "type": "function"
    },
    {
      "inputs": [
        {
          "internalType": "address",
          "name": "user",
          "type": "address"
        },
        {
          "internalType": "uint256",
          "name": "index",
          "type": "uint256"
        }
      ],
      "name": "pendingReward",
      "outputs": [
        {
          "internalType": "uint256",
          "name": "",
          "type": "uint256"
        }
      ],
      "stateMutability": "view",
      "type": "function"
    },
    {
      "inputs": [],
      "name": "proxiableUUID",
      "outputs": [
        {
          "internalType": "bytes32",
          "name": "",
          "type": "bytes32"
        }
      ],
      "stateMutability": "view",
      "type": "function"
    },
    {
      "inputs": [
        {
          "internalType": "address",
          "name": "token",
          "type": "address"
        },
        {
          "internalType": "uint256",
          "name": "amount",
          "type": "uint256"
        }
      ],
      "name": "recoverERC20",
      "outputs": [],
      "stateMutability": "nonpayable",
      "type": "function"
    },
    {
      "inputs": [],
      "name": "referralConfig",
      "outputs": [
        {
          "internalType": "uint256",
          "name": "referralPercentageBps",
          "type": "uint256"
        },
        {
          "internalType": "uint256",
          "name": "referrerPercentageBps",
          "type": "uint256"
        },
        {
          "internalType": "bool",
          "name": "isPaused",
          "type": "bool"
        }
      ],
      "stateMutability": "view",
      "type": "function"
    },
    {
      "inputs": [
        {
          "internalType": "address",
          "name": "",
          "type": "address"
        }
      ],
      "name": "referralCount",
      "outputs": [
        {
          "internalType": "uint256",
          "name": "",
          "type": "uint256"
        }
      ],
      "stateMutability": "view",
      "type": "function"
    },
    {
      "inputs": [
        {
          "internalType": "address",
          "name": "",
          "type": "address"
        }
      ],
      "name": "referralEarnings",
      "outputs": [
        {
          "internalType": "uint256",
          "name": "",
          "type": "uint256"
        }
      ],
      "stateMutability": "view",
      "type": "function"
    },
    {
      "inputs": [
        {
          "internalType": "address",
          "name": "",
          "type": "address"
        }
      ],
      "name": "referrers",
      "outputs": [
        {
          "internalType": "address",
          "name": "",
          "type": "address"
        }
      ],
      "stateMutability": "view",
      "type": "function"
    },
    {
      "inputs": [],
      "name": "renounceOwnership",
      "outputs": [],
      "stateMutability": "nonpayable",
      "type": "function"
    },
    {
      "inputs": [
        {
          "internalType": "uint256",
          "name": "referralPercentageBps",
          "type": "uint256"
        },
        {
          "internalType": "uint256",
          "name": "referrerPercentageBps",
          "type": "uint256"
        },
        {
          "internalType": "bool",
          "name": "isPaused",
          "type": "bool"
        }
      ],
      "name": "setReferralConfig",
      "outputs": [],
      "stateMutability": "nonpayable",
      "type": "function"
    },
    {
      "inputs": [
        {
          "internalType": "uint256",
          "name": "amount",
          "type": "uint256"
        },
        {
          "internalType": "uint256",
          "name": "lockId",
          "type": "uint256"
        }
      ],
      "name": "stake",
      "outputs": [],
      "stateMutability": "nonpayable",
      "type": "function"
    },
    {
      "inputs": [
        {
          "internalType": "uint256",
          "name": "amountId",
          "type": "uint256"
        },
        {
          "internalType": "uint256",
          "name": "lockId",
          "type": "uint256"
        }
      ],
      "name": "stakeWithAmountConfig",
      "outputs": [],
      "stateMutability": "nonpayable",
      "type": "function"
    },
    {
      "inputs": [
        {
          "internalType": "uint256",
          "name": "amountId",
          "type": "uint256"
        },
        {
          "internalType": "uint256",
          "name": "lockId",
          "type": "uint256"
        },
        {
          "internalType": "address",
          "name": "referrer",
          "type": "address"
        }
      ],
      "name": "stakeWithAmountConfigAndReferral",
      "outputs": [],
      "stateMutability": "nonpayable",
      "type": "function"
    },
    {
      "inputs": [
        {
          "internalType": "uint256",
          "name": "amount",
          "type": "uint256"
        },
        {
          "internalType": "uint256",
          "name": "lockId",
          "type": "uint256"
        },
        {
          "internalType": "address",
          "name": "referrer",
          "type": "address"
        }
      ],
      "name": "stakeWithReferral",
      "outputs": [],
      "stateMutability": "nonpayable",
      "type": "function"
    },
    {
      "inputs": [],
      "name": "totalNilaLiabilities",
      "outputs": [
        {
          "internalType": "uint256",
          "name": "",
          "type": "uint256"
        }
      ],
      "stateMutability": "view",
      "type": "function"
    },
    {
      "inputs": [],
      "name": "totalStaked",
      "outputs": [
        {
          "internalType": "uint256",
          "name": "",
          "type": "uint256"
        }
      ],
      "stateMutability": "view",
      "type": "function"
    },
    {
      "inputs": [],
      "name": "totalUsdtCollected",
      "outputs": [
        {
          "internalType": "uint256",
          "name": "",
          "type": "uint256"
        }
      ],
      "stateMutability": "view",
      "type": "function"
    },
    {
      "inputs": [
        {
          "internalType": "address",
          "name": "newOwner",
          "type": "address"
        }
      ],
      "name": "transferOwnership",
      "outputs": [],
      "stateMutability": "nonpayable",
      "type": "function"
    },
    {
      "inputs": [],
      "name": "uniqueStakers",
      "outputs": [
        {
          "internalType": "uint256",
          "name": "",
          "type": "uint256"
        }
      ],
      "stateMutability": "view",
      "type": "function"
    },
    {
      "inputs": [],
      "name": "unpause",
      "outputs": [],
      "stateMutability": "nonpayable",
      "type": "function"
    },
    {
      "inputs": [
        {
          "internalType": "uint256",
          "name": "index",
          "type": "uint256"
        }
      ],
      "name": "unstake",
      "outputs": [],
      "stateMutability": "nonpayable",
      "type": "function"
    },
    {
      "inputs": [
        {
          "internalType": "uint256",
          "name": "id",
          "type": "uint256"
        },
        {
          "internalType": "uint256",
          "name": "instantRewardBps",
          "type": "uint256"
        },
        {
          "internalType": "bool",
          "name": "active",
          "type": "bool"
        }
      ],
      "name": "updateAmountConfig",
      "outputs": [],
      "stateMutability": "nonpayable",
      "type": "function"
    },
    {
      "inputs": [
        {
          "internalType": "uint256",
          "name": "id",
          "type": "uint256"
        },
        {
          "internalType": "uint256",
          "name": "apr",
          "type": "uint256"
        },
        {
          "internalType": "bool",
          "name": "active",
          "type": "bool"
        }
      ],
      "name": "updateLockConfig",
      "outputs": [],
      "stateMutability": "nonpayable",
      "type": "function"
    },
    {
      "inputs": [
        {
          "internalType": "address",
          "name": "newImplementation",
          "type": "address"
        },
        {
          "internalType": "bytes",
          "name": "data",
          "type": "bytes"
        }
      ],
      "name": "upgradeToAndCall",
      "outputs": [],
      "stateMutability": "payable",
      "type": "function"
    },
    {
      "inputs": [],
      "name": "usdt",
      "outputs": [
        {
          "internalType": "contract IERC20",
          "name": "",
          "type": "address"
        }
      ],
      "stateMutability": "view",
      "type": "function"
    },
    {
      "inputs": [],
      "name": "version",
      "outputs": [
        {
          "internalType": "string",
          "name": "",
          "type": "string"
        }
      ],
      "stateMutability": "pure",
      "type": "function"
    },
    {
      "inputs": [
        {
          "internalType": "uint256",
          "name": "amount",
          "type": "uint256"
        }
      ],
      "name": "withdrawExcessRewards",
      "outputs": [],
      "stateMutability": "nonpayable",
      "type": "function"
    },
    {
      "inputs": [
        {
          "internalType": "uint256",
          "name": "amount",
          "type": "uint256"
        }
      ],
      "name": "withdrawUSDT",
      "outputs": [],
      "stateMutability": "nonpayable",
      "type": "function"
    }
  ],
  "bytecode": "0x60a08060405234620000d157306080527ff0c57e16840df040f15088dc2f81fe391c3923bec73e23a9662efc9c229c6a009081549060ff8260401c16620000c257506001600160401b036002600160401b0319828216016200007c575b60405161557f9081620000d782396080518181816123a3015261249a0152f35b6001600160401b031990911681179091556040519081527fc7f505b2f371ae2175ee4913f4499e1f2633a7b5936321eed1cdaeb6115181d290602090a13880806200005c565b63f92ee8a960e01b8152600490fd5b600080fdfe608080604052600436101561001357600080fd5b60003560e01c90816251a11b1461490757508063012ce5011461475d57806305eaab4b146146895780630770b1211461464f5780630a7ce03a146145945780630b83a7271461434b5780630f0a4fef146140e757806311485ff0146140395780631319649d14611b4e57806317eddd0414611ee057806318452cd8146140aa5780631b545a17146140705780631e58a8721461403957806321bade1314613fdc578063249d39e914613fbf57806327ed718814613f9b5780632943c55a14613c625780632e17de781461382b5780632f48ab7d14613804578063308e401e1461379e57806336a79f001461362a57806336ef510c14613607578063379607f51461346257806338f57ff3146131e45780633ad415b5146130185780633c23f12c14612ff15780633c6fa6e214612f155780633ea521ef14612db95780633f4ba83a14612d1857806345d3969214612cde578063485cc95514612a6c578063492afb071461273657806349d3a0c1146127185780634a3b68cc146126dd5780634f1ef2861461241d57806352d1902d1461238857806354fd4d50146123325780635a3c52ef146122bf5780635c975abb1461227d5780635d1acee41461225f57806361e670d51461224157806367dbb2bc14611f1a5780636f8d80f514611ee05780637007f56214611e11578063715018a614611d965780637b0472f014611b6c5780637c356df814611b4e578063817b1cd214611b30578063842e298114611a145780638456cb591461199b578063879d9090146119805780638980f11f146118535780638c758b771461179d5780638da5cb5b1461175757806391035bae146116be578063928ac9ba1461169b5780639785fac8146116155780639811cb1b146114e15780639868c2e9146114a757806399044f7c1461137e5780639aca660e146113605780639ae99547146112565780639c5150f3146111fb578063a06eea30146110e8578063a463572514610fa5578063ad3cb1cc14610f4b578063ae1ee8c414610d22578063b11d6f1714610b09578063c07b528a14610acf578063c38a36ca146107db578063cc70c59e146107bd578063db74559b14610783578063dce2089e14610747578063e4b9f70d1461060a578063e5b9a9a514610425578063f1da1daf146103fe578063f2fde38b146103d3578063f430cf0d146103a45763f914d2a71461038357600080fd5b3461039f57600036600319011261039f57602060405160648152f35b600080fd5b3461039f57604036600319011261039f5760206103cb6103c261493d565b6024359061512c565b604051908152f35b3461039f57602036600319011261039f576103fc6103ef61493d565b6103f7615251565b61508e565b005b3461039f57600036600319011261039f5760206001600160a01b0360005416604051908152f35b3461039f57600036600319011261039f5761043e6151a6565b336000526020601481526040600020549081156105a0576001600160a01b036024828260015416604051928380926370a0823160e01b82523060048301525afa801561056357849060009061056f575b61049a92501015614d80565b336000526014825260006040812055600154169080604051809363a9059cbb60e01b8252816000816104e6893360048401602090939291936001600160a01b0360408201951681520152565b03925af1918215610563577f53473e2a2e0cc6840d80567f104277ea6daa0891e5316836bac38a686b79ea3392610536575b506040519283523392a2600160008051602061552a83398151915255005b61055590823d841161055c575b61054d8183614a5e565b810190614b9f565b5083610518565b503d610543565b6040513d6000823e3d90fd5b50508281813d8311610599575b6105868183614a5e565b8101031261039f578361049a915161048e565b503d61057c565b6084906040519062461bcd60e51b82526004820152602160248201527f4e6f205553445420726566657272616c207265776172647320746f20636c616960448201527f6d000000000000000000000000000000000000000000000000000000000000006064820152fd5b3461039f5760208060031936011261039f5761062461493d565b9060006001600160a01b03831660005260118252604060002054601283526040600020549060138452604060002054601485526040600020549060098652604060002093845467ffffffffffffffff8111610731576040519561068c898360051b0188614a5e565b8187526000908152888120898089015b84841061071257505050505060005b85518110156106f05760e06106c08288614d6c565b510151156106d1575b6001016106ab565b956106e86001916106e2898c61512c565b90614c4d565b9690506106c9565b5060a09593945086604051958652850152604084015260608301526080820152f35b60019160089161072185614cff565b8152019201920191908a9061069c565b634e487b7160e01b600052604160045260246000fd5b3461039f57602036600319011261039f576001600160a01b0361076861493d565b16600052600a60205260206040600020541515604051908152f35b3461039f57602036600319011261039f576001600160a01b036107a461493d565b16600052600f6020526020604060002054604051908152f35b3461039f57600036600319011261039f576020600654604051908152f35b3461039f576107e936614b08565b906107f26151a6565b6107fa6152b4565b600754811015610a8b576108116008548310615309565b3360005261083e610838602092600a8452610833606460406000205410614fa1565b61497d565b50615354565b9161084b610838826149ce565b926040810151151580610a7e575b15610a3a57600061271061087283518685015190614f8e565b0494846108c16001600160a01b0384541685516040519586809481936323b872dd60e01b83523033600485016040919493929460608201956001600160a01b0380921683521660208201520152565b03925af19182156105635761098192610a1d575b506108e38351600254614c4d565b6002556108f9866108f2614e61565b1015614bb7565b856109fe575b33600052600485526040600020805460ff8116156109df575b50503360005260098552604060002080549684519287610939825142614c4d565b910151906040519461094a86614a25565b8552600089860152426040860152426060860152608085015260a084015260c0830152600060e08301526000610100830152614fec565b33600052600a835260406000206109988154614cf0565b905551916040519283528201527fb4caaf29adda3eefee3ad552a8e85058589bf834c7466cae4ee58787f70589ed60403392a3600160008051602061552a83398151915255005b60ff191660011790556003546109f490614cf0565b6003558680610918565b33600052601185526040600020610a16878254614c4d565b90556108ff565b610a3390863d881161055c5761054d8183614a5e565b50866108d5565b6064836040519062461bcd60e51b82526004820152600f60248201527f496e61637469766520636f6e66696700000000000000000000000000000000006044820152fd5b5060408401511515610859565b606460405162461bcd60e51b815260206004820152601060248201527f496e76616c696420616d6f756e744964000000000000000000000000000000006044820152fd5b3461039f57602036600319011261039f576001600160a01b03610af061493d565b1660005260106020526020604060002054604051908152f35b3461039f57600036600319011261039f57610b226151a6565b336000526020601381526040600020546014825260406000205490610b478282614c4d565b908115610cde57906024916001600160a01b0390858260015416604051958680926370a0823160e01b82523060048301525afa8015610563578694600091610ca5575b5094839291610ba0610be6956000981015614d80565b80610c65575b5080610c27575b50600154169060405194858094819363a9059cbb60e01b83523360048401602090939291936001600160a01b0360408201951681520152565b03925af1801561056357610c09575b600160008051602061552a83398151915255005b81610c1f92903d1061055c5761054d8183614a5e565b508080610bf5565b338652601485528560408120556040519081527f53473e2a2e0cc6840d80567f104277ea6daa0891e5316836bac38a686b79ea33853392a286610bad565b8690338252601387528160408120556040519081527fc77332cd1d0405ca76ed245986ec0790a7bf92de812cc28468db6011bf1c9ea5873392a387610ba6565b85819594939692503d8311610cd7575b610cbf8183614a5e565b8101031261039f579151859391929190610be6610b8a565b503d610cb5565b6064846040519062461bcd60e51b82526004820152601860248201527f4e6f2055534454207265776172647320746f20636c61696d00000000000000006044820152fd5b3461039f57608036600319011261039f57610d3b61493d565b602435604435906001600160a01b0360643593610d56615251565b610d5e6151a6565b16918215610f0757610d71821515614c02565b8015610ec357610d8561c350851115614e16565b82600052602091600a8352610da1606460406000205410614fa1565b83600052600483526040600020805460ff811615610ea4575b50508360005260098352604060002054946201518080840293840403610e8e577fb4caaf29adda3eefee3ad552a8e85058589bf834c7466cae4ee58787f70589ed93610e5b60009260409588855260098452610e198786209142614c4d565b91875192610e2684614a25565b87845286868501524289850152426060850152608084015260a08301528460c08301528460e083015284610100830152614fec565b858252600a8152838220610e6f8154614cf0565b90558351928352820152a3600160008051602061552a83398151915255005b634e487b7160e01b600052601160045260246000fd5b60ff19166001179055600354610eb990614cf0565b6003558580610dba565b606460405162461bcd60e51b815260206004820152601160248201527f496e76616c6964206c6f636b20646179730000000000000000000000000000006044820152fd5b606460405162461bcd60e51b815260206004820152600c60248201527f496e76616c6964207573657200000000000000000000000000000000000000006044820152fd5b3461039f57600036600319011261039f57610fa1604051610f6b81614a42565b600581527f352e302e30000000000000000000000000000000000000000000000000000000602082015260405191829182614a9c565b0390f35b3461039f57600036600319011261039f57610fbe6151a6565b3360005260206011815260406000205480156110a457610fe0816108f2614e61565b3360005260118252600060408120556001600160a01b03600054169180604051809463a9059cbb60e01b825281600081611034883360048401602090939291936001600160a01b0360408201951681520152565b03925af1908115610563576000937fc77332cd1d0405ca76ed245986ec0790a7bf92de812cc28468db6011bf1c9ea592611087575b506040519283523392a3600160008051602061552a83398151915255005b61109d90823d841161055c5761054d8183614a5e565b5084611069565b6064826040519062461bcd60e51b82526004820152601b60248201527f4e6f20696e7374616e74207265776172647320746f20636c61696d00000000006044820152fd5b3461039f576110f636614ae5565b916110ff615251565b6127108082116111b75782116111735761116e7f379b3b476e363861f47c32c485712ba55bc9fc35085b09c3c1163e6e6e461fce9382600b5583600c5560ff19600d541660ff8215151617600d5560405193849384919260409194936060840195845260208401521515910152565b0390a1005b606460405162461bcd60e51b815260206004820152601b60248201527f496e76616c69642072656665727265722070657263656e7461676500000000006044820152fd5b606460405162461bcd60e51b815260206004820152601b60248201527f496e76616c696420726566657272616c2070657263656e7461676500000000006044820152fd5b3461039f57602036600319011261039f5760043560085481101561039f57611222906149ce565b508054610fa160ff600260018501549401541660405193849384919260409194936060840195845260208401521515910152565b3461039f5761126436614b08565b9061126d615251565b801561131c5761128161c350831115614e16565b6201518080820291820403610e8e5760405161129c81614a09565b818152826020820152600160408201526008549068010000000000000000821015610731576112d48260016112da94016008556149ce565b90614f44565b600854600019810192908311610e8e577f589397f0f320a9aeb2fe413d12363e16d075210a15bb93809b47513dbc87c7319160409182519182526020820152a2005b606460405162461bcd60e51b815260206004820152601960248201527f4c6f636b206475726174696f6e206d757374206265203e2030000000000000006044820152fd5b3461039f57600036600319011261039f576020600854604051908152f35b3461039f5760208060031936011261039f5761139861493d565b6000906000926000916001600160a01b03811660005260098252604060002080549067ffffffffffffffff821161073157604051936113dc818460051b0186614a5e565b82855260009182528082208186015b84841061148a5750505050506000925b82518410156114705760e06114108585614d6c565b5101511561143c575b61143460019160c061142b8787614d6c565b51015190614c4d565b9301926113fb565b949361143461146761145c6001936114548888614d6c565b515190614c4d565b966106e2878661512c565b96915050611419565b604080518681526020810188905290810191909152606090f35b60088360019261149985614cff565b8152019201930192906113eb565b3461039f57602036600319011261039f576001600160a01b036114c861493d565b1660005260136020526020604060002054604051908152f35b3461039f57600036600319011261039f576114fa6151a6565b3360005260206013815260406000205480156115d2576001600160a01b036024838260015416604051928380926370a0823160e01b82523060048301525afa80156105635783906000906115a1575b61155592501015614d80565b336000526013835260006040812055600154169180604051809463a9059cbb60e01b825281600081611034883360048401602090939291936001600160a01b0360408201951681520152565b50508381813d83116115cb575b6115b88183614a5e565b8101031261039f57826115559151611549565b503d6115ae565b6064826040519062461bcd60e51b825280600483015260248201527f4e6f205553445420696e7374616e74207265776172647320746f20636c61696d6044820152fd5b3461039f57600036600319011261039f57602460206001600160a01b0360015416604051928380926370a0823160e01b82523060048301525afa801561056357600090611668575b602090604051908152f35b506020813d602011611693575b8161168260209383614a5e565b8101031261039f576020905161165d565b3d9150611675565b3461039f57600036600319011261039f576020604051678ac7230489e800008152f35b3461039f577fb4676401e5fb7fef9e7898ca95186288807e9e40adc472a49476c1d1b75e042d6116ed36614ae5565b906116f9939293615251565b6117066007548510614dcb565b611714612710821115614ef9565b8060016117208661497d565b5001556117458260026117328761497d565b50019060ff801983541691151516179055565b604080519182529115156020820152a2005b3461039f57600036600319011261039f5760206001600160a01b037f9016d09d72d40fdae2fd8ceac6b6234c7706214fd39c1cd1e609a0528c1993005416604051908152f35b3461039f576117ab36614b08565b906117b4615251565b6117bf811515614c02565b6117cd612710831115614ef9565b6040516117d981614a09565b818152826020820152600160408201526007549068010000000000000000821015610731576112d4826001611811940160075561497d565b600754600019810192908311610e8e577f1cef1e0a7c96a56e32d0307248e42b30ebf9cf610b305cb127900448900bc26c9160409182519182526020820152a2005b3461039f57604036600319011261039f5761186c61493d565b602435611877615251565b6001600160a01b0390818060005416931692831461193c577f9016d09d72d40fdae2fd8ceac6b6234c7706214fd39c1cd1e609a0528c1993005460405163a9059cbb60e01b815292166001600160a01b0316600483015260248201819052602082806044810103816000875af1908115610563577f505b28e6941631badc363841ecbf8e1214b9379c643936458e87be718e1579999260209261191f575b50604051908152a2005b61193590833d851161055c5761054d8183614a5e565b5084611915565b606460405162461bcd60e51b815260206004820152601c60248201527f43616e6e6f74207265636f766572207374616b696e6720746f6b656e000000006044820152fd5b3461039f57600036600319011261039f5760206103cb614e61565b3461039f57600036600319011261039f576119b4615251565b6119bc6152b4565b7fcd5ed15c6e187e77e9aee88184c21f4f2182ab5827cb3b7e07fbedcd63f03300600160ff198254161790557f62e78cea01bee320cd4e420270b5ea74000d11b0c9f74754ebdbfc544b05a2586020604051338152a1005b3461039f5760208060031936011261039f576001600160a01b03611a3661493d565b1660005260098152604060002090815467ffffffffffffffff81116107315760405190611a68838260051b0183614a5e565b8082528282018094600052836000206000915b838310611b135760408051878152865181890181905289928201908960005b828110611aa75784840385f35b855180518552808301518584015260408082015190860152606080820151908601526080808201519086015260a0808201519086015260c0808201519086015260e080820151151590860152610100908101511515908501529481019461012090930192600101611a9a565b600886600192611b2285614cff565b815201920192019190611a7b565b3461039f57600036600319011261039f576020600254604051908152f35b3461039f57600036600319011261039f576020600354604051908152f35b3461039f57611b7a36614b08565b90611b836151a6565b611b8b6152b4565b68056bc75e2d631000008110611d5257611ba86008548310615309565b33600052602091600a8352611bc4606460406000205410614fa1565b611bd0610838826149ce565b92611be060408501511515615381565b600080546040516323b872dd60e01b81523360048201523060248201526044810186905291839183916064918391906001600160a01b03165af1801561056357611d35575b50611c3283600254614c4d565b60025533600052600481526040600020805460ff811615611d16575b50503360005260098152611cba60406000209485549583611c70835142614c4d565b92015160405192611c8084614a25565b878452600086850152426040850152426060850152608084015260a0830152600060c0830152600060e08301526000610100830152614fec565b33600052600a81526040600020611cd18154614cf0565b90556040519283528201527fb4caaf29adda3eefee3ad552a8e85058589bf834c7466cae4ee58787f70589ed60403392a3600160008051602061552a83398151915255005b60ff19166001179055600354611d2b90614cf0565b6003558480611c4e565b611d4b90823d841161055c5761054d8183614a5e565b5084611c25565b606460405162461bcd60e51b815260206004820152601460248201527f416d6f756e742062656c6f77206d696e696d756d0000000000000000000000006044820152fd5b3461039f57600036600319011261039f57611daf615251565b60006001600160a01b037f9016d09d72d40fdae2fd8ceac6b6234c7706214fd39c1cd1e609a0528c1993008054906001600160a01b031982169055167f8be0079c531659141344cd1fd0a4f28419497f9722a3daafe3b4186f6b6457e08280a3005b3461039f57600036600319011261039f57602460055460206001600160a01b0360005416604051938480926370a0823160e01b82523060048301525afa801561056357600090611ead575b60809250611e6c60025483614c4d565b90818110611e9b57611e8060019282614b85565b905b6040519384526020840152604083015215156060820152f35b611ea781600093614b85565b90611e82565b506020823d602011611ed8575b81611ec760209383614a5e565b8101031261039f5760809151611e5c565b3d9150611eba565b3461039f57602036600319011261039f576001600160a01b03611f0161493d565b16600052600a6020526020604060002054604051908152f35b3461039f57611f2836614b08565b611f306151a6565b611f386152b4565b678ac7230489e8000082106121fd57611f546008548210615309565b336000526020600a8152611f6f606460406000205410614fa1565b611f7b610838836149ce565b91611f8b60408401511515615381565b670de0b6b3a7640000808502908582041485151715610e8e57600180546040516323b872dd60e01b815233600482015230602482015260448101889052919667011c37937e080000909304949291908390829060649082906000906001600160a01b03165af18015610563576121e0575b5061200981600654614c4d565b60065561201884600554614c4d565b600555600090600087600754915b828110612183575b50505081612164575b3360005260048352604060002087815460ff811615612147575b50505033600052600983526120bc604060002096875497889486612076845142614c4d565b9301516040519361208685614a25565b8a85528689860152426040860152426060860152608085015260a084015260c0830152600060e083015289610100830152614fec565b33600052600a835260406000206120d38154614cf0565b905560405190815284838201527f74a684d81f93971ad63f234f96fe4d990650c4ad0f691e4e83999c36cff8569a60403392a36040519283528201527fb4caaf29adda3eefee3ad552a8e85058589bf834c7466cae4ee58787f70589ed60403392a360008051602061552a83398151915255005b60ff1916179055612159600354614cf0565b600355878781612051565b3360005260138352604060002061217c838254614c4d565b9055612037565b60ff60026121908361497d565b50015416806121cd575b6121a657018890612026565b6127109394506121c392506121ba9061497d565b50015483614f8e565b049087878161202e565b50876121d88261497d565b50541461219a565b6121f690833d851161055c5761054d8183614a5e565b5086611ffc565b606460405162461bcd60e51b815260206004820152601860248201527f4d696e696d756d203130205553445420726571756972656400000000000000006044820152fd5b3461039f57600036600319011261039f576020600754604051908152f35b3461039f57600036600319011261039f576020600554604051908152f35b3461039f57600036600319011261039f57602060ff7fcd5ed15c6e187e77e9aee88184c21f4f2182ab5827cb3b7e07fbedcd63f0330054166040519015158152f35b3461039f577e7c9b40d6582d140bd188d68ee83e05c102fcd89910017c50ad73047d939deb6122ed36614ae5565b906122f9939293615251565b6123066008548510614dcb565b61231461c350821115614e16565b806001612320866149ce565b500155611745826002611732876149ce565b3461039f57600036600319011261039f57610fa160405161235281614a42565b600581527f322e302e30000000000000000000000000000000000000000000000000000000602082015260405191829182614a9c565b3461039f57600036600319011261039f576001600160a01b037f00000000000000000000000000000000000000000000000000000000000000001630036123f35760206040517f360894a13ba1a3210667c828492db98dca3e2076cc3735a920a3ca505d382bbc8152f35b60046040517fe07c8dba000000000000000000000000000000000000000000000000000000008152fd5b604036600319011261039f5761243161493d565b602490813567ffffffffffffffff811161039f573660238201121561039f57806004013561245e81614a80565b9261246c6040519485614a5e565b818452602091828501933687838301011161039f5781600092888693018737860101526001600160a01b03807f0000000000000000000000000000000000000000000000000000000000000000168030149081156126af575b506123f3576124d2615251565b811693604051857fc68d6b394bbff225c75b6ba60811fafb0da04351338aa28c9614981c55287be2600080a27f52d1902d0000000000000000000000000000000000000000000000000000000081528381600481895afa60009181612680575b5061254e57868660405190634c9c8ce360e01b82526004820152fd5b8590877f360894a13ba1a3210667c828492db98dca3e2076cc3735a920a3ca505d382bbc918281036126525750843b1561263c5750816001600160a01b0319825416179055604051907fbc7cd75a20ee27fd9adebab32041f755214dbc6bffa90cc0225b39da2e5c2d3b600080a2815115612608575060006103fc9481925190845af4903d156125ff573d6125e281614a80565b906125f06040519283614a5e565b8152600081943d92013e615496565b60609250615496565b93505050503461261457005b807fb398979f0000000000000000000000000000000000000000000000000000000060049252fd5b8260405190634c9c8ce360e01b82526004820152fd5b604051907faa1d49a40000000000000000000000000000000000000000000000000000000082526004820152fd5b9091508481813d83116126a8575b6126988183614a5e565b8101031261039f57519088612532565b503d61268e565b9050817f360894a13ba1a3210667c828492db98dca3e2076cc3735a920a3ca505d382bbc54161415876124c5565b3461039f57602036600319011261039f5760206001600160a01b038061270161493d565b16600052600e825260406000205416604051908152f35b3461039f57600036600319011261039f57602060405162278d008152f35b3461039f5761274436614953565b919061274e6151a6565b6127566152b4565b6001600160a01b0380931680151561276d81614c5a565b61277933831415614ca5565b600754841015610a8b576127906008548410615309565b336000526127b2610838602095600a8752610833606460406000205410614fa1565b916127bf610838856149ce565b916040840151151580612a5f575b15612a1b57906127ec6000939285516127109283918a89015190614f8e565b865488516040516323b872dd60e01b81523360048201523060248201526044810191909152929091049a91968a91889160649183919086165af195861561056357610981966129fe575b506128448751600254614c4d565b6002556128538a6108f2614e61565b896129df575b816129d1575b816129b9575b506128a6575b505033600052600485526040600020805460ff8116156109df5750503360005260098552604060002080549684519287610939825142614c4d565b33600052600e87526040600020826001600160a01b031982541617905581600052600f875260406000206128da8154614cf0565b9055806128eb8651600b5490614f8e565b04906128fb8651600c5490614f8e565b049061292361290a8383614c4d565b61291c612915614e61565b918c614c4d565b11156153cc565b8061297f575b508061295f575b5033907f5f1ca2fcc108b751843a763e60d2201f593516109d7dbb1b700468f2d4190bb7600080a3868061286b565b33600052601287526129776040600020918254614c4d565b905587612930565b82600052601288526040600020612997828254614c4d565b905582600052601088526129b16040600020918254614c4d565b905588612929565b905033600052600e8852604060002054161589612865565b600d5460ff1615915061285f565b336000526011895260406000206129f78b8254614c4d565b9055612859565b612a14908a3d8c1161055c5761054d8183614a5e565b508a612836565b6064866040519062461bcd60e51b82526004820152600f60248201527f496e61637469766520636f6e66696700000000000000000000000000000000006044820152fd5b50604083015115156127cd565b3461039f57604036600319011261039f57612a8561493d565b6024356001600160a01b039182821680920361039f577ff0c57e16840df040f15088dc2f81fe391c3923bec73e23a9662efc9c229c6a009182549360ff8560401c16159267ffffffffffffffff861695861580612cd7575b60018098149081612ccd575b159081612cc4575b50612c9a5767ffffffffffffffff1981168717865584612c7b575b50168015612c37578115612bf357612b2261543d565b612b2a61543d565b8460008051602061552a83398151915255612b4361543d565b612b4b61543d565b612b5361543d565b612b5c3361508e565b612b6461543d565b6001600160a01b031990816000541617600055845416178355604051612b8981614a09565b600060406101f49283815260c860208201520152600b5560c8600c5560ff19600d5416600d55612bb557005b805468ff0000000000000000191690556040519081527fc7f505b2f371ae2175ee4913f4499e1f2633a7b5936321eed1cdaeb6115181d290602090a1005b606460405162461bcd60e51b815260206004820152601260248201527f496e76616c6964205553445420746f6b656e00000000000000000000000000006044820152fd5b606460405162461bcd60e51b815260206004820152601260248201527f496e76616c6964204e494c4120746f6b656e00000000000000000000000000006044820152fd5b68ffffffffffffffffff19166801000000000000000117855586612b0c565b60046040517ff92ee8a9000000000000000000000000000000000000000000000000000000008152fd5b90501588612af1565b303b159150612ae9565b5084612add565b3461039f57602036600319011261039f576001600160a01b03612cff61493d565b1660005260146020526020604060002054604051908152f35b3461039f57600036600319011261039f57612d31615251565b7fcd5ed15c6e187e77e9aee88184c21f4f2182ab5827cb3b7e07fbedcd63f03300805460ff811615612d8f5760ff191690557f5db9ee0a495bf2e6ff9c91a7834c1ba4fdd244a5e8aa4e537bd38aeae4b073aa6020604051338152a1005b60046040517f8dfc202b000000000000000000000000000000000000000000000000000000008152fd5b3461039f5760208060031936011261039f5760043590612dd7615251565b612de2821515614c02565b6001600160a01b0390816001541691604051926370a0823160e01b84523060048501528284602481845afa93841561056357600094612ee4575b50612e2c612e8894861115614d80565b82857f9016d09d72d40fdae2fd8ceac6b6234c7706214fd39c1cd1e609a0528c1993009284845416600060405180998195829463a9059cbb60e01b845260048401602090939291936001600160a01b0360408201951681520152565b03925af1938415610563577fb0bd88cdae83f74f918eb6bf26d99dcb3c1530530f339233b029e3b6a00ac50b94612ec7575b50541692604051908152a2005b612edd90843d861161055c5761054d8183614a5e565b5085612eba565b93508284813d8311612f0e575b612efb8183614a5e565b8101031261039f57925192612e2c612e1c565b503d612ef1565b3461039f5760208060031936011261039f57612f2f61493d565b906001600160a01b03821660005260098152604060002091825467ffffffffffffffff81116107315760405193612f6b848360051b0186614a5e565b8185526000908152838120848087015b848410612fd257600082878a835b8151811015612fc85760e0612f9e8284614d6c565b51015115612faf575b600101612f89565b93612fc06001916106e2878661512c565b949050612fa7565b8385604051908152f35b600191600891612fe185614cff565b8152019201920191908590612f7b565b3461039f57602036600319011261039f5760043560075481101561039f576112229061497d565b3461039f57600036600319011261039f576130316151a6565b3360005260206009815260406000208054156131a057600080805b83548310156131025761305f8385614b1e565b509260ff60078501541615806130e7575b61307f575b600101925061304c565b613089813361512c565b9384613096575b50613075565b6130b36130ad866001958594600342910155614c4d565b94614cf0565b946040519081527ff01da32686223933d8a18a391060918c7f11a3648639edd87ae013e2e2731743883392a3839291613090565b50600384015462278d008101809111610e8e57421015613070565b8490801561315c5781610be68261311d6000946108f2614e61565b6001600160a01b038454169060405194858094819363a9059cbb60e01b83523360048401602090939291936001600160a01b0360408201951681520152565b6064826040519062461bcd60e51b82526004820152601760248201527f4e6f20415059207265776172647320746f20636c61696d0000000000000000006044820152fd5b6064826040519062461bcd60e51b82526004820152600f60248201527f4e6f207374616b657320666f756e6400000000000000000000000000000000006044820152fd5b3461039f576131f236614953565b91906131fc6151a6565b6132046152b4565b6001600160a01b038093168015159061321c82614c5a565b61322833821415614ca5565b68056bc75e2d631000008410611d52576132456008548410615309565b33600052602091600a8352613261606460406000205410614fa1565b61326d610838856149ce565b9561327d60408801511515615381565b600080546040516323b872dd60e01b815233600482015230602482015260448101899052918691839160649183919087165af1801561056357613445575b506132c886600254614c4d565b60025581613437575b8161341f575b50613318575b5033600052600481526040600020805460ff811615611d165750503360005260098152611cba60406000209485549583611c70835142614c4d565b33600052600e82526040600020816001600160a01b031982541617905580600052600f8252604060002061334c8154614cf0565b90556127108061335e600b5487614f8e565b049061336c600c5487614f8e565b049061338a61337b8383614c4d565b613383614e61565b10156153cc565b806133e5575b50806133c5575b5033907f5f1ca2fcc108b751843a763e60d2201f593516109d7dbb1b700468f2d4190bb7600080a3846132dd565b33600052601283526133dd6040600020918254614c4d565b905585613397565b826000526012845260406000206133fd828254614c4d565b905582600052601084526134176040600020918254614c4d565b905586613390565b905033600052600e83526040600020541615866132d7565b600d5460ff161591506132d1565b61345b90853d871161055c5761054d8183614a5e565b50876132bb565b3461039f5760208060031936011261039f57600435906134806151a6565b61348a82336151ee565b336000526009815260036134a2836040600020614b1e565b506134b460ff60078301541615614b3a565b0190815462278d008101809111610e8e5742106135c3576134d5833361512c565b91821561357f576134e8836108f2614e61565b4290556001600160a01b03600054169080604051809363a9059cbb60e01b825281600081613530893360048401602090939291936001600160a01b0360408201951681520152565b03925af1918215610563577ff01da32686223933d8a18a391060918c7f11a3648639edd87ae013e2e27317439261108757506040519283523392a3600160008051602061552a83398151915255005b6064826040519062461bcd60e51b82526004820152600a60248201527f4e6f2072657761726473000000000000000000000000000000000000000000006044820152fd5b6064906040519062461bcd60e51b82526004820152601360248201527f436c61696d2065766572792033302064617973000000000000000000000000006044820152fd5b3461039f57600036600319011261039f57602060405167011c37937e0800008152f35b3461039f5760208060031936011261039f5760043590613648615251565b60ff7fcd5ed15c6e187e77e9aee88184c21f4f2182ab5827cb3b7e07fbedcd63f0330054161561375a5761367a614e61565b821161371657600080547f9016d09d72d40fdae2fd8ceac6b6234c7706214fd39c1cd1e609a0528c199300805460405163a9059cbb60e01b81526001600160a01b039182166004820152602481018790529493909284918691604491839187165af1938415610563577fc156f50f65d2a2a0bf07f9b3e7c208a9b92fb5a2be793c4a456cc2fab4ea80c794612ec75750541692604051908152a2005b6064906040519062461bcd60e51b82526004820152601a60248201527f416d6f756e7420657863656564732072657761726420706f6f6c0000000000006044820152fd5b6064906040519062461bcd60e51b82526004820152601760248201527f436f6e7472616374206d757374206265207061757365640000000000000000006044820152fd5b3461039f57602036600319011261039f576001600160a01b036137bf61493d565b166000526011602052604060002054601260205260406000205490610fa16137e78383614c4d565b604051938493846040919493926060820195825260208201520152565b3461039f57600036600319011261039f5760206001600160a01b0360015416604051908152f35b3461039f5760208060031936011261039f57600435906138496151a6565b61385382336151ee565b3360005260098152613869826040600020614b1e565b5060078101805461387d60ff821615614b3a565b60048301544210613c1e5760081c60ff1615613a7e5761389d843361512c565b9082546138aa8382614c4d565b916001600160a01b03916024878460005416604051928380926370a0823160e01b82523060048301525afa8015610563578591600091613a4d575b5010613a095792869261395e926139026000989796600554614b85565b600555600160ff19825416179055338752600a8452604087206139258154614b92565b90558654169060405196878094819363a9059cbb60e01b83523360048401602090939291936001600160a01b0360408201951681520152565b03925af1908115610563577f7fc4727e062e336010f2c282598ef5f14facb3de68cf8195c2f23e1454b2b74e9386926139ec575b50806139ba575b505054916040519283523392a3600160008051602061552a83398151915255005b6040519081527ff01da32686223933d8a18a391060918c7f11a3648639edd87ae013e2e2731743853392a38385613999565b613a0290863d881161055c5761054d8183614a5e565b5086613992565b6064876040519062461bcd60e51b82526004820152601c60248201527f496e73756666696369656e74204e494c4120666f72207061796f7574000000006044820152fd5b809250898092503d8311613a77575b613a668183614a5e565b8101031261039f578490518a6138e5565b503d613a5c565b90613a89843361512c565b9182613b6a575b60009250600160ff19825416179055613aac8154600254614b85565b600255338252600a835260408220613ac48154614b92565b905582613b0a6001600160a01b03845416835460405195868094819363a9059cbb60e01b83523360048401602090939291936001600160a01b0360408201951681520152565b03925af1918215610563577f7fc4727e062e336010f2c282598ef5f14facb3de68cf8195c2f23e1454b2b74e92613b4d575b5054916040519283523392a3610bf5565b613b6390843d861161055c5761054d8183614a5e565b5084613b3c565b613b76836108f2614e61565b6001600160a01b03600054169284604051809563a9059cbb60e01b825281600081613bbb873360048401602090939291936001600160a01b0360408201951681520152565b03925af1908115610563576000948792613c01575b506040519081527ff01da32686223933d8a18a391060918c7f11a3648639edd87ae013e2e2731743863392a3613a90565b613c1790873d891161055c5761054d8183614a5e565b5087613bd0565b6064846040519062461bcd60e51b82526004820152600b60248201527f4c6f636b206163746976650000000000000000000000000000000000000000006044820152fd5b3461039f57613c7036614953565b9190613c7a6151a6565b613c826152b4565b6001600160a01b038093169081151593613c9b85614c5a565b613ca733841415614ca5565b678ac7230489e8000084106121fd57613cc36008548310615309565b33600052602090600a8252613cdf606460406000205410614fa1565b613ceb610838846149ce565b94613cfb60408701511515615381565b670de0b6b3a7640000808202908282041482151715610e8e57600180546040516323b872dd60e01b815233600482015230602482015260448101859052919967011c37937e080000909304979291908690829060649082906000908a165af1801561056357613f7e575b50613d7283600654614c4d565b600655613d8187600554614c4d565b60055560009360008a600754915b828110613f21575b50505084613f02575b81613ef4575b81613edc575b50613df1575b503360005260048352604060002087815460ff8116156121475750505033600052600983526120bc604060002096875497889486612076845142614c4d565b33600052600e84526040600020816001600160a01b031982541617905580600052600f84526040600020613e258154614cf0565b905561271080613e37600b5485614f8e565b0490613e45600c5485614f8e565b049080613ea2575b5080613e82575b5033907f5f1ca2fcc108b751843a763e60d2201f593516109d7dbb1b700468f2d4190bb7600080a387613db2565b3360005260148552613e9a6040600020918254614c4d565b905588613e54565b82600052601486526040600020613eba828254614c4d565b90558260005260108652613ed46040600020918254614c4d565b905589613e4d565b905033600052600e8552604060002054161589613dac565b600d5460ff16159150613da6565b33600052601386526040600020613f1a868254614c4d565b9055613da0565b60ff6002613f2e8361497d565b5001541680613f6b575b613f4457018b90613d8f565b612710939750613f619250613f589061497d565b50015485614f8e565b04938a8a81613d97565b508a613f768261497d565b505414613f38565b613f9490863d881161055c5761054d8183614a5e565b5089613d65565b3461039f57600036600319011261039f57602060405168056bc75e2d631000008152f35b3461039f57600036600319011261039f5760206040516127108152f35b3461039f57602036600319011261039f5760606001600160a01b038061400061493d565b16600052600e60205260406000205416600f60205260406000205460106020526040600020549060405192835260208301526040820152f35b3461039f57600036600319011261039f57600b54600c54600d5460408051938452602084019290925260ff16151590820152606090f35b3461039f57602036600319011261039f576001600160a01b0361409161493d565b1660005260096020526020604060002054604051908152f35b3461039f57602036600319011261039f5760206001600160a01b03806140ce61493d565b16600052600e8252604060002054161515604051908152f35b3461039f57604036600319011261039f5761410061493d565b6040516101809182820182811067ffffffffffffffff821117610731576040526000825260006020830152600060408301526000606083015260006080830152600060a0830152600060c0830152600060e083015260006101008301526000610120830152600061014083015260006101608301526001600160a01b03811660005260096020526040600020546024351015614307576001600160a01b03811660005260096020526141b86024356040600020614b1e565b5080548352600181015460208401526002810154604084015260038101548060608501526142276007600484015493846080880152600581015460a0880152600681015460c088015201549360ff8516151560e087015260ff8560081c1615156101008701526024359061512c565b61012085015260ff83161590816142eb575b50151561014084015260ff808316159216156142e0575b50151561016082015261016060405191805183526020810151602084015260408101516040840152606081015160608401526080810151608084015260a081015160a084015260c081015160c084015260e0810151151560e08401526101008101511515610100840152610120810151610120840152610140810151151561014084015201511515610160820152f35b905042101583614250565b905062278d0081018111610e8e5762278d000142101585614239565b606460405162461bcd60e51b815260206004820152600d60248201527f496e76616c696420696e646578000000000000000000000000000000000000006044820152fd5b3461039f57600036600319011261039f576143646151a6565b3360005260116020601181526040600020549160128252604060002054916000936009825260406000209060005b8254811015614453576143a58184614b1e565b5060ff6007820154161580614423575b6143c3575b50600101614392565b6143cd823361512c565b90816143da575b506143ba565b916143f08282939a600195600342910155614c4d565b986040519081527ff01da32686223933d8a18a391060918c7f11a3648639edd87ae013e2e2731743873392a390886143d4565b50600381015462278d00810180911161443e574210156143b5565b86634e487b7160e01b60005260045260246000fd5b8382876144698a6144648385614c4d565b614c4d565b91821561455057828492610be6926144856000966108f2614e61565b80614510575b50806144d2575b506001600160a01b038454169060405194858094819363a9059cbb60e01b83523360048401602090939291936001600160a01b0360408201951681520152565b338552601284528460408120556040519081527f53473e2a2e0cc6840d80567f104277ea6daa0891e5316836bac38a686b79ea33843392a285614492565b8590338252601186528160408120556040519081527fc77332cd1d0405ca76ed245986ec0790a7bf92de812cc28468db6011bf1c9ea5863392a38661448b565b6064846040519062461bcd60e51b82526004820152601360248201527f4e6f207265776172647320746f20636c61696d000000000000000000000000006044820152fd5b3461039f57602036600319011261039f576004356145b0615251565b6145bb811515614c02565b600080546040516323b872dd60e01b8152336004820152306024820152604481018490529160209183916064918391906001600160a01b03165af1801561056357614630575b506040519081527f19a1b7246060274fcdbf1dde897f6360a3731efd2f86fe93ba8d5eb8cb99d48b60203392a2005b6146489060203d60201161055c5761054d8183614a5e565b5081614601565b3461039f57602036600319011261039f576001600160a01b0361467061493d565b1660005260116020526020604060002054604051908152f35b3461039f57600036600319011261039f576146a26151a6565b33600052602060128152604060002054908115614719576146c5826108f2614e61565b3360005260128152600060408120556001600160a01b03600054169080604051809363a9059cbb60e01b8252816000816104e6893360048401602090939291936001600160a01b0360408201951681520152565b6064906040519062461bcd60e51b82526004820152601c60248201527f4e6f20726566657272616c207265776172647320746f20636c61696d000000006044820152fd5b3461039f5760208060031936011261039f576004359061477b6151a6565b60ff7fcd5ed15c6e187e77e9aee88184c21f4f2182ab5827cb3b7e07fbedcd63f033005416156148c3576147af82336151ee565b336000526009815260006147c68360408320614b1e565b5060078101600181546147dc60ff821615614b3a565b60ff19161790554260038201556147f68154600254614b85565b600255338252600a83526040822061480e8154614b92565b9055826148546001600160a01b03845416835460405195868094819363a9059cbb60e01b83523360048401602090939291936001600160a01b0360408201951681520152565b03925af1918215610563577f3b1e93c4be42a439cdb9e768b998c1f8181a04e2a02607a8dbc6c64b1ed56625926148a6575b5054916040519283523392a3600160008051602061552a83398151915255005b6148bc90843d861161055c5761054d8183614a5e565b5084614886565b6064906040519062461bcd60e51b82526004820152601060248201527f4f6e6c79207768656e20706175736564000000000000000000000000000000006044820152fd5b3461039f57602036600319011261039f576020906001600160a01b0361492b61493d565b16600052601282526040600020548152f35b600435906001600160a01b038216820361039f57565b606090600319011261039f5760043590602435906044356001600160a01b038116810361039f5790565b6007548110156149b8576003906007600052027fa66cc928b5edb82af9bd49922954155ab7b0942694bea4ce44661d9a8736c6880190600090565b634e487b7160e01b600052603260045260246000fd5b6008548110156149b8576003906008600052027ff3f7a9fe364faab93b216da50a3214154f22a0a2b415b23a84c8169e8b636ee30190600090565b6060810190811067ffffffffffffffff82111761073157604052565b610120810190811067ffffffffffffffff82111761073157604052565b6040810190811067ffffffffffffffff82111761073157604052565b90601f8019910116810190811067ffffffffffffffff82111761073157604052565b67ffffffffffffffff811161073157601f01601f191660200190565b6020808252825181830181905290939260005b828110614ad157505060409293506000838284010152601f8019910116010190565b818101860151848201604001528501614aaf565b606090600319011261039f576004359060243590604435801515810361039f5790565b604090600319011261039f576004359060243590565b80548210156149b85760005260206000209060031b0190600090565b15614b4157565b606460405162461bcd60e51b815260206004820152601060248201527f416c726561647920756e7374616b6564000000000000000000000000000000006044820152fd5b91908203918211610e8e57565b8015610e8e576000190190565b9081602091031261039f5751801515810361039f5790565b15614bbe57565b606460405162461bcd60e51b815260206004820152601860248201527f496e73756666696369656e742072657761726420706f6f6c00000000000000006044820152fd5b15614c0957565b606460405162461bcd60e51b815260206004820152600e60248201527f496e76616c696420616d6f756e740000000000000000000000000000000000006044820152fd5b91908201809211610e8e57565b15614c6157565b606460405162461bcd60e51b815260206004820152601060248201527f496e76616c6964207265666572726572000000000000000000000000000000006044820152fd5b15614cac57565b606460405162461bcd60e51b815260206004820152601560248201527f43616e6e6f7420726566657220796f757273656c6600000000000000000000006044820152fd5b6000198114610e8e5760010190565b90604051614d0c81614a25565b61010060ff600783958054855260018101546020860152600281015460408601526003810154606086015260048101546080860152600581015460a0860152600681015460c08601520154818116151560e085015260081c161515910152565b80518210156149b85760209160051b010190565b15614d8757565b606460405162461bcd60e51b815260206004820152601960248201527f496e73756666696369656e7420555344542062616c616e6365000000000000006044820152fd5b15614dd257565b606460405162461bcd60e51b815260206004820152601160248201527f496e76616c696420636f6e6669672069640000000000000000000000000000006044820152fd5b15614e1d57565b606460405162461bcd60e51b815260206004820152600c60248201527f41505220746f6f206869676800000000000000000000000000000000000000006044820152fd5b6000602460206001600160a01b03835416604051928380926370a0823160e01b82523060048301525afa908115614eee578291614eb8575b506002549081811115614eb357614eb09250614b85565b90565b505090565b90506020813d602011614ee6575b81614ed360209383614a5e565b81010312614ee2575138614e99565b5080fd5b3d9150614ec6565b6040513d84823e3d90fd5b15614f0057565b606460405162461bcd60e51b815260206004820152601260248201527f496e76616c6964207265776172642062707300000000000000000000000000006044820152fd5b90614f78576002604083614f7694518455602081015160018501550151151591019060ff801983541691151516179055565b565b634e487b7160e01b600052600060045260246000fd5b81810292918115918404141715610e8e57565b15614fa857565b606460405162461bcd60e51b815260206004820152601660248201527f546f6f206d616e7920616374697665207374616b6573000000000000000000006044820152fd5b8054680100000000000000008110156107315761500e91600182018155614b1e565b614f7857600761010091835181556020840151600182015560408401516002820155606084015160038201556080840151600482015560a0840151600582015560c08401516006820155019161507660e08201511515849060ff801983541691151516179055565b0151815461ff00191690151560081b61ff0016179055565b6001600160a01b038091169081156150fb577f9016d09d72d40fdae2fd8ceac6b6234c7706214fd39c1cd1e609a0528c199300805490836001600160a01b03198316179055167f8be0079c531659141344cd1fd0a4f28419497f9722a3daafe3b4186f6b6457e0600080a3565b60246040517f1e4fbdf700000000000000000000000000000000000000000000000000000000815260006004820152fd5b6001600160a01b031660005260096020526040600020805482101561519f5761515e9161515891614b1e565b50614cff565b60e08101516151995761519581615190615182606064496cebb80095015142614b85565b9160a0815191015190614f8e565b614f8e565b0490565b50600090565b5050600090565b60008051602061552a83398151915260028154146151c45760029055565b60046040517f3ee5aeb5000000000000000000000000000000000000000000000000000000008152fd5b6001600160a01b03166000526009602052604060002054111561520d57565b606460405162461bcd60e51b815260206004820152600960248201527f42616420696e64657800000000000000000000000000000000000000000000006044820152fd5b6001600160a01b037f9016d09d72d40fdae2fd8ceac6b6234c7706214fd39c1cd1e609a0528c1993005416330361528457565b60246040517f118cdaa7000000000000000000000000000000000000000000000000000000008152336004820152fd5b60ff7fcd5ed15c6e187e77e9aee88184c21f4f2182ab5827cb3b7e07fbedcd63f0330054166152df57565b60046040517fd93c0665000000000000000000000000000000000000000000000000000000008152fd5b1561531057565b606460405162461bcd60e51b815260206004820152600e60248201527f496e76616c6964206c6f636b49640000000000000000000000000000000000006044820152fd5b9060405161536181614a09565b604060ff6002839580548552600181015460208601520154161515910152565b1561538857565b606460405162461bcd60e51b815260206004820152601460248201527f496e616374697665206c6f636b20636f6e6669670000000000000000000000006044820152fd5b156153d357565b608460405162461bcd60e51b815260206004820152602660248201527f496e73756666696369656e742072657761726420706f6f6c20666f722072656660448201527f657272616c7300000000000000000000000000000000000000000000000000006064820152fd5b60ff7ff0c57e16840df040f15088dc2f81fe391c3923bec73e23a9662efc9c229c6a005460401c161561546c57565b60046040517fd7e6bcf8000000000000000000000000000000000000000000000000000000008152fd5b906154d557508051156154ab57602081519101fd5b60046040517fd6bda275000000000000000000000000000000000000000000000000000000008152fd5b81511580615520575b6154e6575090565b6024906001600160a01b03604051917f9996b315000000000000000000000000000000000000000000000000000000008352166004820152fd5b50803b156154de56fe9b779b17422d0df92223018b32b4d1fa46e071723d6817e2486d003becc55f00a2646970667358221220a9c0964cd633b9ceeec253013a0fd1a87705fabba72741f6bf54f85af3e2cdef64736f6c63430008160033",
  "linkReferences": {},
  "deployedLinkReferences": {}
}